:040000008831AE2D68
:1000080070082000A2007108A1008031911E3B28D1
:100018008831A425803170082100D50031280130AD
:100028002000AF00B8013B283B2820001930F00021
:100038002030F1003808700786000030713D8700D5
:100048002100550881002000B80A3808700786008A
:100058000030713D870081013B28210055080D3A89
:100068000319132855080A3A0319182819282000D3
:0A0078002208F0002108F100090041
:08008200FA1FF2130030080020
:10008A00FB14FB1F4F28FF30F300F200F100F000D1
:08009A00FA0DF20CFF30080022
:1000A2007B15FB1F5B280130F300F201F101F00127
:0800B200FA0DF20CFF3008000A
:0E00BA00F201F101F001F801F301003008003D
:1000C800A0017208031D79287108F2007008F10078
:1000D800F001A0157208031D79287108F200F101DA
:1000E800A01120167208031987282008F302031D9F
:1000F800031C8B280310F21B8F28F00DF10DF20D55
:10010800F30B7F288B280130FC005D2092280230F9
:0E011800FC00512092280430FC004120080019
:100126007C18C928FC189A287C19E8289328A0016D
:100136007208031DBA287108F2007008F1007808E9
:10014600F000F801A0157208031DBA287108F20024
:100156007008F100F001A01120167208031DBA28DC
:100166007108F200F101A01572080319DC282008B5
:10017600F302031D031CE0280310F21BC928F80D27
:10018600F00DF10DF20DF30BC028E0287B1B701C5F
:10019600E428F81FE428F00A0319F10A0319F20A01
:1001A600031DE428F20CF10CF00CF30A0319E828FD
:1001B600E4280130FC005D20EB280230FC005120D1
:1001C600EB280430FC004120EB280830FC004520D9
:0401D600000008001D
:1001DA00200072087606A000F801F9017308770278
:1001EA00031C0F297708FD007308F7007D08F30048
:1001FA007608FD007208F6007D08F2007508FD0019
:10020A007108F5007D08F1007408FD007008F4001B
:10021A007D08F0007708031988297208FA00F21796
:10022A00F61777087302F700031942290830770294
:10023A00031C3829F7007408F9007508F4007608D9
:10024A00F500F60108307702031C3829F700740814
:10025A00F9007508F400F50108307702031C382903
:10026A007A08F20088297708031942290310F60C44
:10027A00F50CF40CF90CF70B3B29A01F4F29F909CF
:10028A00F409F509F609F90A0319F40A0319F50A32
:10029A000319F60A7908F80774080318740FF007A7
:1002AA0075080318750FF10776080318760FF20719
:1002BA00A01B6829031C7829F20CF10CF00CF80C2D
:1002CA00F30F7829842903187C29F809F009F10920
:1002DA00F209F80A0319F00A0319F10A0319F20AD2
:1002EA008030FA0680290130FC0093208A290230E6
:1002FA00FC0093208A290430FC0064208A290830F3
:0E030A00FC0045208A290030FC00000008009D
:100318007B14FB1F9729F201FA1FFF30F200F1004E
:0A032800F000FA0DF20CFF3008009F
:0A03320020008030F606ED200800E0
:06033C00FB15FF30080074
:100342002000FB017308031D77080319F7297208BF
:100352007606FA007708F3077E30031CB429F3020D
:100362000318FA29B729F302031CFD297208F800C1
:100372007108FC007008FD00F817F6170310F2016F
:10038200F101F0011830A0007D1CD1297408F0079A
:1003920075080318750FF10776080318760FF20730
:1003A200F20CF10CF00CF80CFC0CFD0C0310A00B81
:1003B200C529F21BE129F80DF00DF10DF20DF30341
:1003C2007B1B701CF329F81FF329F00A0319F10AA9
:1003D2000319F20A031DF329F20CF10CF00CF30AD3
:1003E2000319FA29FA1FF2130030FF2901305D20A8
:1003F200FF2902304520FF29043051200000080067
:100402002000FB01FC01F80173080319782A720825
:10041200FA00F2179E30F302F31F682AF309F30A77
:1004220008307302031C3D2AF300F80D7008F8002F
:100432007108F0007208F100F20108307302031C27
:100442003D2AF300F80D7008F8007108F000F10180
:1004520008307302031C3D2AF300F80D7008F800FF
:10046200F00108307302031C3D2AF300F80DF80175
:100472007308031D0310472A73080319472A031040
:10048200F20CF10CF00CF80CF30B402A7B1B781CDD
:10049200552A031C552AF80A0319F00A0319F10A0E
:1004A2000319F20AF21B752AFA1F782AF209F109D6
:1004B200F009F809F80A0319F00A0319F10A0319F5
:1004C200F20A782AF201F101F001F801782A7B148C
:1004D200FB1F7B2AF201FA1F7B2AF200F100F000D7
:1004E200F800FA0DF20C7B2A0130FC007D2A003064
:1004F200FC007D2AFF30FC00FC080319812A8C21B4
:100502007208F3007108F2007008F1007808F00038
:020512000800DF
:100514002000FA017308031D7A147708031DFA14E6
:100524007A080319D52A033A0319A02A7A189D2AAE
:10053400F61FD32AD12AF21FD12AD32A720880396E
:10054400FA00F21376088039F6137A060319AE2AF4
:100554007A080319D12AD32A770873020319B52A12
:10056400031CC92ACD2A760872020319BC2A031C6B
:10057400C92ACD2A750871020319C32A031CC92A82
:10058400CD2A740870020319D52A0318CD2AFA0853
:100594000319D32AD12AFA080319D12AD32A031416
:0E05A4000800031008000314031508000800E7
:1005B20020007008F8007108F0007208F10073085A
:1005C200F200F301FB01FC019E30F300FA01F21F7D
:1005D200F62AF809F009F109F209F80A0319F00AF2
:1005E2000319F10A0319F20AFA170230FC009320E8
:0205F2000800FF
:1005F4007408003A031D132B7508003A031D132BCE
:100604007608003A031D132B7708003A031D132BB9
:10061400FF30F000FF30F1007F30F200FF30F300D4
:10062400AD2B200077080319A12B73080319A42B01
:10063400720876068039FA00F217F617A0017208DC
:10064400F8007108FC007008FD007408FD027508CC
:10065400031C750FFC027608031C760FF802F801E0
:10066400FC01FD01031C3D2B0310F20CF10CF00CFA
:10067400F80C0130A0007708F302031C472B7E30EE
:100684002007F3070318A72B4C2B7E302007F30712
:10069400031CAA2B1830FA07FD0DFC0DF80DF00D04
:1006A400F10DF20DA00D7408F0027508031C750F0E
:1006B400F1027608031C760FF202760DA004201CCA
:1006C400652B7D14702B7408F00775080318750FDB
:1006D400F10776080318760AF2077D10FA031F3033
:1006E4007A05031D4E2B7B1B7D1C972B0310F00DED
:1006F400F10DF20DA00D7408F0027508031C750FBE
:10070400F1027608031C760FF202760D20040139FB
:10071400FD070318FC0A0319F80A031D972BF80CAC
:10072400FC0CFD0CF30A0319A72BFA1FF813780825
:10073400F2007C08F1007D08F0000030AC2B0130A1
:100744009E21AC2B02305D20AC2B04304520AC2B19
:080754000830512000000800EC
:10075C0022006308F0006408F100F035F10DF0356B
:10076C00F10D7008610784007108623D8500000876
:10077C00E50001310008E60001310008E700013115
:10078C000008E800630864040319062C5D08F000F7
:10079C005E08F1005F08F2006008F3006508F400E1
:1007AC006608F5006708F6006808F700A12101301B
:1007BC002200E3020030E43B6308F4006408F50017
:1007CC00F435F50DF435F50D7408610784007508E2
:1007DC00623D85000008F40001310008F50001318C
:1007EC000008F60001310008F700ED207008220027
:1007FC00E5007108E6007208E7007308E800C82BF2
:10080C006508F0006608F1006708F2006808F3005C
:02081C000800D2
:10081E0022006008F000F101F201F301FF30F00553
:10082E000030F1057008E5007108E6007F307002B7
:10083E00F2000030713BF3007208E5007308E60029
:10084E0080307306F00080307002031D302C0030B3
:10085E0072020318542CF401F501F601F7015D083C
:10086E00F0005E08F1005F08F2006008F3008A22D3
:10087E00013003180030F000700803194F2C0030BF
:10088E00F0000030F1008030F2007F30F300AD2C2C
:10089E00F001F101F201F301AD2C22006608003CDB
:1008AE00031D5B2C6508183C0318662C5D08F000D0
:1008BE005E08F1005F08F2006008F300AD2C5D08E1
:1008CE00F0005E08F1005F08F2006008F3000122FC
:1008DE00D92270082200E1007108E2007208E300DC
:1008EE007308E4007008F4007108F5007208F60051
:1008FE007308F7005D08F0005E08F1005F08F20073
:10090E006008F3008A22013003180030F0007008EE
:10091E000319A42C0030F4000030F5000030F6006E
:10092E007F30F70022006108F0006208F1006308D2
:10093E00F2006408F3009921AD2C22006108F0004A
:0E094E006208F1006308F2006408F30008007C
:10095C00710DF80DF90D7408F8027508031C750F6C
:10096C00F902F00DF10D0F30FC00710DF80DF90DC1
:10097C007408701CC72CF8027508031C750FF9025B
:10098C00CC2CF80775080318750FF907F00DF10D4D
:10099C00FC0BBB2C7018D82C7408F80775080318BE
:0809AC00750FF90700000800B7
:1009B40020007008F8007108F000F101F201F30161
:1009C400FB01FC019630F300FA01F01FEF2CF8094B
:1009D400F009F80A0319F00AFA177008F100780808
:0A09E400F000F801F20164200800A1
:1009EE00303022005402F000F1010030F13B0800DB
:1009FE002200DC01F401F501F601F7015408F000C4
:100A0E005508F1005608F2005708F3008A2201300B
:100A1E0003180030F00070080319202D003022005A
:100A2E00D4060030D5068030D6060030D706013009
:100A3E00DC0022005408F0005508F1005608F200C0
:100A4E005708F3008330F400F930F5002230F60039
:100A5E007C30F700A12170082200D4007108D50067
:100A6E007208D6007308D7007008DD007108DE002A
:100A7E007208DF007308E0000F247008F40071089C
:100A8E00F5007208F6007308F70022005408F00013
:100A9E005508F1005608F2005708F300992100306E
:100AAE00F4000030F5000030F6008130F700A1218F
:100ABE0070082200D4007108D5007208D6007308A1
:100ACE00D7007008F4007108F5007208F60073087C
:100ADE00F7000030F0000030F1000030F2008030FE
:100AEE00F3008A22013003180030F0007008031959
:100AFE00A02D0030F4000030F5000030F6008030FC
:100B0E00F70022005408F0005508F1005608F200D4
:100B1E005708F300992170082200D4007108D500FF
:100B2E007208D6007308D7005C080130031D003030
:100B3E00DC0022005408F4005508F5005608F600B3
:100B4E005708F7000030F0000030F1000030F200DE
:100B5E007F30F3008A22013003180030F000700855
:100B6E000319D42D22005408F4005508F500560838
:100B7E00F6005708F7000030F0000030F1000030AA
:100B8E00F2008030F300992170082200D400710821
:100B9E00D5007208D6007308D70022005408F00062
:100BAE005508F1005608F2005708F3005408F400F7
:100BBE005508F5005608F6005708F700A1217008F1
:100BCE002200D8007108D9007208DA007308DB0021
:100BDE007008DD007108DE007208DF007308E000A7
:100BEE009730E1008F30E2000430E3000030E40083
:100BFE00AE235408F4005508F5005608F6005708C1
:100C0E00F700A12170082200D4007108D5007208E7
:100C1E00D6007308D7005808DD005908DE005A08C0
:100C2E00DF005B08E000AB30E1008F30E200033004
:100C3E00E3000030E400AE237008F4007108F50004
:100C4E007208F6007308F7005408F0005508F1001A
:100C5E005608F2005708F300FA2270082200D4005A
:100C6E007108D5007208D6007308D7005C08031906
:100C7E004D2E00305406F00000305506F100803045
:100C8E005606F20000305706F300552E5408F000B9
:0E0C9E005508F1005608F2005708F300080050
:100CAC002000FB0173080319922E7208FA00F21748
:100CBC008E30F302F31F952EF309F30A08307302FA
:100CCC00031C782EF300F10D7208F100F2010830CC
:100CDC007302031C782EF300F10DF1017308031D50
:100CEC000310802E73080319802E0310F20CF10CE4
:100CFC00F30B7B2E7B1B711C8A2E031C8A2EF10A94
:100D0C000319F20AF21BA12EFA1FA42EF209F10903
:100D1C00F10A0319F20AA42EF201F101A42E7B149C
:100D2C00FB1FA72EF201FA1FA72EFF30F200F100D5
:100D3C00FA0DF20CA72E0130FC00A92E0030FC009D
:100D4C00A92EFF30FC00FC080319AD2E8C21710874
:080D5C00F0007208F10008002C
:100D64007408003A031DBF2E7508003A031DBF2EF8
:100D7400FF30F0007F30F100172F2000FD01F90152
:100D8400F801710870040319003471087506FA003B
:100D9400FA1BFD09FB01F51FD42EF409F509F40A29
:100DA4000319F50AF11FDB2EF009F109F00A031902
:100DB400F10A71087504FA00FA1BF02EAE247B18B0
:100DC400032FFD1F0034F009F109F00A0319F10A99
:100DD400F809F909F80A0319F90A0034F51FFF2E76
:100DE400F11BFB2E7108F9007008F800F101F00105
:100DF400E32EF101F001F00A0034F109F009FB0AD5
:100E0400E02EF80A0319F90A74087802031DE32E88
:100E140075087902031DE32EF901F801F00A03199C
:0C0E2400F10AF11FE32E0000FF3408006B
:100E300023009E181D2F0000182F220041082300B8
:040E40009A0008000C
:100E4400F401F501F601F70122004108F00042081F
:100E5400F1004308F2004408F3008A220130031829
:100E64000030F00070080319452F003022004106BD
:100E7400F00000304206F10080304306F2000030FA
:100E84004406F3004E2F22004108F0004208F1000E
:0A0E94004308F2004408F3000800D0
:100E9E0022004108F4004208F5004308F600440819
:100EAE00F700DB30F0000F30F1004930F2008030F7
:100EBE00F3008A22013003180030F0007008031985
:100ECE00852FE430F400CB30F5001630F60081307B
:100EDE00F70022004108F0004208F1004308F2003A
:100EEE004408F300992170082200D4007108D5003F
:100EFE007208D6007308D700FF24A12F22004108E4
:100F0E00F0004208F1004308F2004408F300DB3021
:100F1E00F4000F30F5004930F6007F30F700ED2079
:100F2E0070082200D4007108D5007208D60073082C
:060F3E00D700FF240800AB
:100F44002200A40121006D0884006E0885000008B9
:100F5400EF006F08003A0319BF2F6F082200C10089
:100F640018272200A40A240821006D0784000030F9
:0C0F74006E3D85000008EF00AB2F080068
:100F800012001E00F003031DC02FF103031DC02F2C
:020F9000080057
:100F920018302100D6000730D7004130D800013088
:100FA200D900A430D1000D30D2000030D30000307F
:100FB200D400FF30DA00FF30DB000030DC0000300C
:100FC200DD00FF30CD00FF30CE000030CF0000301A
:100FD200D00023009E1690309D0021008D140D112B
:100FE2002000911EF82F23001908F000F12F0800AD
:101000002200C301C401C501C6010030C700003081
:10101000C8000030C9007F30CA00CD30CB00CC30D2
:10102000CC004C30CD007B30CE00CF014108840095
:101030004208850000082D3A031D27280030C7000C
:101040000030C8008030C9007F30CA00CF0A4F0886
:10105000410784000030423D85000008003A031932
:1010600029294F08410784000030423D8500303077
:101070000002031C85284F08410784000030423DD0
:1010800085000008393C031C85284308F00044080B
:10109000F1004508F2004608F3000030F40000308B
:1010A000F5002030F6008230F7008031A121883130
:1010B00070082200D0007108D1007208D2007308B5
:1010C000D3004F08410784000030423D85000008EE
:1010D000D4008031F72488318031DA24883122002D
:1010E0005008F4005108F5005208F6005308F700C4
:1010F0008031ED20883170082200C3007108C400DF
:101100007208C5007308C60026294F0841078400ED
:101110000030423D850000082E3A031D1229CF0AF7
:101120004F08410784000030423D85000008003A26
:10113000031911294F08410784000030423D850002
:1011400030300002031CFA284F08410784000030A9
:10115000423D85000008393C031CFA284F0841072E
:1011600084000030423D85000008D4008031F7241F
:1011700088318031DA24883122004B08F4004C0891
:10118000F5004D08F6004E08F7008031A1218831A6
:1011900022004308F4004408F5004508F60046081C
:1011A000F7008031ED20883170082200C3007108FB
:1011B000C4007208C5007308C6004B08F0004C0854
:1011C000F1004D08F2004E08F300CD30F400CC30B1
:1011D000F5004C30F6007B30F7008031A1218831DA
:1011E00070082200CB007108CC007208CD00730893
:1011F000CE000E294308F0004408F1004508F20033
:101200004608F3004708F4004808F5004908F600CE
:101210004A08F7008031A12188313C292200CF0AF9
:10122000902829294308F0004408F1004508F200FD
:101230004608F3004708F4004808F5004908F6009E
:101240004A08F7008031A12188313C292200CF0AC9
:1012500027284308F0004408F1004508F20046083A
:10126000F3004708F4004808F5004908F6004A086A
:0A127000F7008031A1218831080049
:10127A002200A801A901AA01AB01AC01AD01AE018E
:10128A00AF012100ED01EE016E08013C031D4F295B
:10129A006D08F43C031CD92922002808D400290827
:1012AA00D5002A08D6002B08D7008031FF248831C0
:1012BA002408F4002508F5002608F6002708F70098
:1012CA0080319921883170082200AC007108AD0084
:1012DA007208AE007308AF007008C1007108C2003E
:1012EA007208C3007308C4008031222788315F3036
:1012FA00F4007030F5000930F6006130F7008031F3
:10130A008A228831013003180030F000700803196E
:10131A00982922002808F0002908F1002A08F2007A
:10132A002B08F300D92922002808C1002908C20085
:10133A002A08C3002B08C40080314F27883170085F
:10134A00F4007108F5007208F6007308F7002C081B
:10135A00F0002D08F1002E08F2002F08F30080316A
:10136A00FA2288317008F4007108F5007208F60054
:10137A007308F70022002808F0002908F1002A085B
:10138A00F2002B08F300803199218831700822007D
:10139A00A8007108A9007208AA007308AB0021000E
:0A13AA00ED0A0319EE0A49290800B4
:1013B40022002408A8002508A9002608AA00270856
:1013C400AB002408F0002508F1002608F2002708E5
:1013D400F3000030F4000030F5000030F6007F30F8
:1013E400F7008031ED2088310030F4000030F50042
:1013F4000030F6008030F7008031FA22883170081E
:101404002200AC007108AD007208AE007308AF0092
:101414002100ED01EE0122002808F4002908F5005E
:101424002A08F6002B08F7002C08F0002D08F1001C
:101434002E08F2002F08F3008031992188317008BA
:101444002200C1007108C2007208C3007308C400FE
:101454008031222788317008F4007108F500720881
:10146400F6007308F7005F30F0007030F1000930C7
:10147400F2006130F30080318A2288310130031890
:101484000030F00070080319912A21006E08013C15
:10149400031D4E2A6D08F43C031C912A22002C08DB
:1014A400A8002D08A9002E08AA002F08AB002C08BC
:1014B400F4002D08F5002E08F6002F08F700240884
:1014C400F0002508F1002608F2002708F300803117
:1014D400FA22883122002C08F4002D08F5002E0889
:1014E400F6002F08F7008031ED2088310030F40039
:1014F4000030F5000030F6008030F7008031FA2229
:10150400883170082200AC007108AD007208AE008A
:101514007308AF002100ED0A0319EE0A0D2A220018
:101524002C08F0002D08F1002E08F2002F08F3001B
:021534000800AD
:1015360022002408AA002508AB002608AC002708CC
:10154600AD002100EF012200B201F401F501F60120
:10155600F7012A08F0002B08F1002C08F2002D08EC
:10156600F30080318A228831013003180030F00000
:1015760070080319D32A00302200AA060030AB06F1
:101586008030AC060030AD0621006F082200280727
:1015960086000030293D87002D3081002100EF0AAA
:1015A60022002A08F0002B08F1002C08F2002D0872
:1015B600F30080315626883170082100ED0071084D
:1015C600EE0080307106F20080307202031DED2AB3
:1015D60064307002031C0D2B6F0822002807B3002D
:1015E6000030293DB4006430F4000030F5002100DD
:1015F6006D08F0006E08F1008031B2268831303077
:10160600F00722003308860034088700700881003E
:101616002100EF0A80306E06F00080307002031D54
:10162600162B0A306D02031C412B6F082200280777
:10163600B3000030293DB4000A30F4000030F50054
:1016460021006D08F0006E08F1008031B226883165
:101656000A30F4000030F5008031B226883178086F
:10166600F0007908F1003030F007220033088600D8
:1016760034088700700881002100EF0A6F082200F5
:101686002807B3000030293DB4000A30F4000030CA
:10169600F50021006D08F0006E08F1008031B226D9
:1016A60088317808F0007908F1003030F007220020
:1016B6003308860034088700700881002100EF0A8D
:1016C6006F082200280786000030293D87002E304B
:1016D60081002100EF0A6D08F0006E08F1008031EC
:1016E600DA2488317008F4007108F5007208F600F3
:1016F6007308F70022002A08F0002B08F1002C08D6
:10170600F2002D08F30080319921883170082200FB
:10171600AE007108AF007208B0007308B10008305F
:1017260032020318ED2B2E08F0002F08F1003008C6
:10173600F2003108F3000030F4000030F5002030EC
:10174600F6008230F7008031A1218831700822002E
:10175600AE007108AF007208B0007308B1008031A6
:101766005626883170082100ED007108EE006F08DA
:101776002200280786000030293D87003030F00718
:10178600700881002100EF0A6D08F0006E08F10074
:101796008031DA2488317008F4007108F500720887
:1017A600F6007308F70022002E08F0002F08F1005B
:1017B6003008F2003108F300803199218831700831
:1017C6002200AE007108AF007208B0007308B100C5
:1017D600B20A922B21006F082200280786000030EB
:0817E600293D87008101080084
:1017EE0007302200BC003C0821006D078400003049
:1017FE006E3D850000082C3A0319082C2200BC0A05
:10180E00FA2B2200BC0A3C0821006D078400003030
:10181E006E3D850000082C3A031D172CF001632D38
:10182E00EF0122003C0821006D07840000306E3D60
:10183E00850000082C3A0319432C24308600013011
:10184E0087006F0886070318870A22003C082100CC
:10185E006D07840000306E3D850000088100EF0AA0
:10186E0024308600013087006F0886070318870A28
:10187E0081012200BC0A182C22002630C100013042
:10188E00C200002070082200B8007108B90072086A
:10189E00BA007308BB00A6012430C1000130C2009B
:1018AE00002070082200BD007108BE007208BF0043
:1018BE007308C0000030F4000030F5007030F60000
:1018CE008430F7003808F0003908F1003A08F200C9
:1018DE003B08F3008031FA22883122003D08F400E3
:1018EE003E08F5003F08F6004008F7008031ED2075
:1018FE0088317008B4007108B5007208B60073081C
:10190E00B7002200BC0A3C0821006D07840000309D
:10191E006E3D85000008533A031D9E2C00302000BA
:10192E00B4060030B5068030B6060030B70620008B
:10193E003408F0003508F1003608F2003708F300DD
:10194E003530F400FA30F5000E30F6007930F7003D
:10195E008031A12188317008A3007108A40072089B
:10196E00A5007308A6002200BC0ABC0A2100EF01E4
:10197E0022003C0821006D07840000306E3D85007A
:10198E0000082C3A0319EA2C243086000130870017
:10199E006F0886070318870A22003C0821006D078E
:1019AE00840000306E3D850000088100EF0A24306F
:1019BE008600013087006F0886070318870A8101A9
:1019CE002200BC0ABF2C22002730C1000130C20009
:1019DE00002070082200B8007108B9007208BA0021
:1019EE007308BB00A7012430C1000130C2000020E3
:1019FE0070082200BD007108BE007208BF00730897
:101A0E00C0000030F4000030F5007030F600843075
:101A1E00F7003808F0003908F1003A08F2003B08E8
:101A2E00F3008031FA22883122003D08F4003E088E
:101A3E00F5003F08F6004008F7008031ED208831B0
:101A4E007008B0007108B1007208B2007308B300DC
:101A5E002200BC0A3C0821006D07840000306E3D58
:101A6E0085000008573A031D452D00302000B006B2
:101A7E000030B1068030B2060030B30620003008C8
:101A8E00F0003108F1003208F2003308F30035306F
:101A9E00F400FA30F5000E30F6007930F7008031A0
:101AAE00A12188317008AB007108AC007208AD003E
:0A1ABE007308AE000130F0000800CC
:101AC80021006D0884006E0885000008243A031D73
:101AD800A22D01306D07840000306E3D850000089E
:101AE800473A031DA22D02306D07840000306E3D79
:101AF80085000008503A031DA22D03306D078400AD
:101B080000306E3D85000008473A031DA22D0430C1
:101B18006D07840000306E3D85000008473A031DBC
:101B2800A22D05306D07840000306E3D8500000849
:101B3800413A031DA22D0130F000A32DF001080049
:101B480023001908F1009D1CAB2D1D121D167108EC
:041B5800F000080091
:101B5C002000A301A401A501A601A701A801A901C8
:101B6C00AA01AB01AC01AD01AE01AF01B001B101F5
:101B7C00B201B301B401B501B601B701B801F0303F
:101B8C00210099008C018D0123008C018D01210015
:101B9C008D1491160B178B1723009F1540309B004B
:101BAC0003309C001E158031C927883120002F0876
:101BBC000319952F19302100ED002030EE0064251B
:101BCC0070080319932F1930ED002030EE00F72325
:101BDC0070080319932F3430F4002230F5007F3055
:101BEC00F6007B30F70020002308F0002408F100F9
:101BFC002508F2002608F300803199218831003045
:101C0C00F4000030F5000030F6008030F700803131
:101C1C00FA22883170082200D4007108D5007208AD
:101C2C00D6007308D7008031FF248831700820005B
:101C3C00A7007108A8007208A9007308AA00700810
:101C4C00F4007108F5007208F6007308F700803193
:101C5C00A12188317008A7007108A8007208A9009A
:101C6C007308AA0034302200C1002230C2007F3039
:101C7C00C3007B30C40080314F2788317008A0002E
:101C8C007108A1007208A2007308A30020002308A9
:101C9C002200C100200024082200C20020002508D8
:101CAC002200C300200026082200C40080314F27E8
:101CBC0088312008F4002108F5002208F6002308DA
:101CCC00F7008031A121883170082200A000710832
:101CDC00A1007208A2007308A3003D30F4005A3032
:101CEC00F500A330F6007F30F70020002B08F00041
:101CFC002C08F1002D08F2002E08F30080319921F8
:101D0C0088310030F4000030F5000030F6008030EF
:101D1C00F7008031FA22883170082200D400710853
:101D2C00D5007208D6007308D7008031FF248831A3
:101D3C002008F4002108F5002208F6002308F7001B
:101D4C008031A121883170082200A0007108A10007
:101D5C007208A2007308A3003D30F4005A30F5005D
:101D6C00A330F6007F30F70020002B08F0002C0881
:101D7C00F1002D08F2002E08F300803199218831F2
:101D8C000030F4000030F5000030F6008030F70031
:101D9C008031FA22883170082200D4007108D500F5
:101DAC007208D6007308D7008031FF2488312008D0
:101DBC00F4002108F5002208F6002308F700803112
:101DCC00A12188312708F4002808F5002908F6001D
:101DDC002A08F7008031ED2088317008A7007108BF
:101DEC00A8007208A9007308AA0070082200A400B9
:101DFC007108A5007208A6007308A700DA21700804
:101E0C002000A7007108A8007208A9007308AA0096
:101E1C0070082200A4007108A5007208A6007308BF
:101E2C00A7003D211930F4005130F5004730F60081
:101E3C008C30F7008031A12188317008A70071081F
:101E4C00A8007208A9007308AA0034082200A40094
:101E5C00200035082200A500200036082200A6002C
:101E6C00200037082200A700DE30A8000030A900AF
:101E7C009B22DE302100ED000030EE008031A227E5
:101E8C0088310D302200C1008031182788312000A4
:101E9C0030082200A400200031082200A5002000F8
:101EAC0032082200A600200033082200A700DE30F2
:101EBC00A8000030A9009B22DE302100ED0000308C
:101ECC00EE008031A22788310D302200C100803114
:101EDC0018278831200027082200A4002000280899
:101EEC002200A500200029082200A60020002A08B4
:101EFC002200A700DE30A8000030A9009B22DE30B3
:101F0C002100ED000030EE008031A22788310D3029
:101F1C002200C1008031182788312000AF01DC2D50
:021F2C00962FEE
:101F2E00EC34F3344A3490343534953495348F345C
:101F3E001734C1345C348B34FD34DB34ED348634E9
:081F4E007234B33433348034E3
:101F56002B343434013490347F349D3430348B3414
:101F6600E734FF34593485340034003400347F3488
:020000040001F9
:04000E00843F131701
:00000001FF
