:040000008831A52C72
:1000080070082000A2007108A1008031911E3B28D1
:1000180088319B24803170082100DF0031282000BE
:10002800B4010130A3003B283B2820002B30F0000E
:100038002030F1003408700786000030713D8700D9
:1000480021005F0881002000B40A34087007860088
:100058000030713D870081013B2821005F080D3A7F
:10006800031913285F080A3A0319182819282000C9
:0A0078002208F0002108F100090041
:08008200FA1FF2130030080020
:10008A00FB14FB1F4F28FF30F300F200F100F000D1
:08009A00FA0DF20CFF30080022
:1000A2007B15FB1F5B280130F300F201F101F00127
:0800B200FA0DF20CFF3008000A
:0E00BA00F201F101F001F801F301003008003D
:1000C800A0017208031D79287108F2007008F10078
:1000D800F001A0157208031D79287108F200F101DA
:1000E800A01120167208031987282008F302031D9F
:1000F800031C8B280310F21B8F28F00DF10DF20D55
:10010800F30B7F288B280130FC005D2092280230F9
:0E011800FC00512092280430FC004120080019
:100126007C18C928FC189A287C19E8289328A0016D
:100136007208031DBA287108F2007008F1007808E9
:10014600F000F801A0157208031DBA287108F20024
:100156007008F100F001A01120167208031DBA28DC
:100166007108F200F101A01572080319DC282008B5
:10017600F302031D031CE0280310F21BC928F80D27
:10018600F00DF10DF20DF30BC028E0287B1B701C5F
:10019600E428F81FE428F00A0319F10A0319F20A01
:1001A600031DE428F20CF10CF00CF30A0319E828FD
:1001B600E4280130FC005D20EB280230FC005120D1
:1001C600EB280430FC004120EB280830FC004520D9
:0401D600000008001D
:1001DA00200072087606A000F801F9017308770278
:1001EA00031C0F297708FD007308F7007D08F30048
:1001FA007608FD007208F6007D08F2007508FD0019
:10020A007108F5007D08F1007408FD007008F4001B
:10021A007D08F0007708031988297208FA00F21796
:10022A00F61777087302F700031942290830770294
:10023A00031C3829F7007408F9007508F4007608D9
:10024A00F500F60108307702031C3829F700740814
:10025A00F9007508F400F50108307702031C382903
:10026A007A08F20088297708031942290310F60C44
:10027A00F50CF40CF90CF70B3B29A01F4F29F909CF
:10028A00F409F509F609F90A0319F40A0319F50A32
:10029A000319F60A7908F80774080318740FF007A7
:1002AA0075080318750FF10776080318760FF20719
:1002BA00A01B6829031C7829F20CF10CF00CF80C2D
:1002CA00F30F7829842903187C29F809F009F10920
:1002DA00F209F80A0319F00A0319F10A0319F20AD2
:1002EA008030FA0680290130FC0093208A290230E6
:1002FA00FC0093208A290430FC0064208A290830F3
:0E030A00FC0045208A290030FC00000008009D
:100318007B14FB1F9729F201FA1FFF30F200F1004E
:0A032800F000FA0DF20CFF3008009F
:0A03320020008030F606ED200800E0
:06033C00FB15FF30080074
:100342002000FB017308031D77080319F7297208BF
:100352007606FA007708F3077E30031CB429F3020D
:100362000318FA29B729F302031CFD297208F800C1
:100372007108FC007008FD00F817F6170310F2016F
:10038200F101F0011830A0007D1CD1297408F0079A
:1003920075080318750FF10776080318760FF20730
:1003A200F20CF10CF00CF80CFC0CFD0C0310A00B81
:1003B200C529F21BE129F80DF00DF10DF20DF30341
:1003C2007B1B701CF329F81FF329F00A0319F10AA9
:1003D2000319F20A031DF329F20CF10CF00CF30AD3
:1003E2000319FA29FA1FF2130030FF2901305D20A8
:1003F200FF2902304520FF29043051200000080067
:100402002000FB01FC01F80173080319782A720825
:10041200FA00F2179E30F302F31F682AF309F30A77
:1004220008307302031C3D2AF300F80D7008F8002F
:100432007108F0007208F100F20108307302031C27
:100442003D2AF300F80D7008F8007108F000F10180
:1004520008307302031C3D2AF300F80D7008F800FF
:10046200F00108307302031C3D2AF300F80DF80175
:100472007308031D0310472A73080319472A031040
:10048200F20CF10CF00CF80CF30B402A7B1B781CDD
:10049200552A031C552AF80A0319F00A0319F10A0E
:1004A2000319F20AF21B752AFA1F782AF209F109D6
:1004B200F009F809F80A0319F00A0319F10A0319F5
:1004C200F20A782AF201F101F001F801782A7B148C
:1004D200FB1F7B2AF201FA1F7B2AF200F100F000D7
:1004E200F800FA0DF20C7B2A0130FC007D2A003064
:1004F200FC007D2AFF30FC00FC080319812A8C21B4
:100502007208F3007108F2007008F1007808F00038
:020512000800DF
:100514002000FA017308031D7A147708031DFA14E6
:100524007A080319D52A033A0319A02A7A189D2AAE
:10053400F61FD32AD12AF21FD12AD32A720880396E
:10054400FA00F21376088039F6137A060319AE2AF4
:100554007A080319D12AD32A770873020319B52A12
:10056400031CC92ACD2A760872020319BC2A031C6B
:10057400C92ACD2A750871020319C32A031CC92A82
:10058400CD2A740870020319D52A0318CD2AFA0853
:100594000319D32AD12AFA080319D12AD32A031416
:0E05A4000800031008000314031508000800E7
:1005B20020007008F8007108F0007208F10073085A
:1005C200F200F301FB01FC019E30F300FA01F21F7D
:1005D200F62AF809F009F109F209F80A0319F00AF2
:1005E2000319F10A0319F20AFA170230FC009320E8
:0205F2000800FF
:1005F400303022005F02F000F1010030F13B0800CE
:1006040022006208F000F101F201F301FF30F0056D
:100614000030F1057008E7007108E8007F307002CF
:10062400F2000030713BF3007208E7007308E80041
:1006340080307306F00080307002031D232B0030DD
:1006440072020318472BF401F501F601F7015F0864
:10065400F0006008F1006108F2006208F3008A22E9
:10066400013003180030F00070080319422B0030E9
:10067400F0000030F1008030F2007F30F300A02B56
:10068400F001F101F201F301A02B22006808003C03
:10069400031D4E2B6708183C0318592B5F08F00004
:1006A4006008F1006108F2006208F300A02B5F0803
:1006B400F0006008F1006108F2006208F300012212
:1006C400D92270082200E3007108E4007208E500F2
:1006D4007308E6007008F4007108F5007208F6006B
:1006E4007308F7005F08F0006008F1006108F20089
:1006F4006208F3008A22013003180030F000700809
:100704000319972B0030F4000030F5000030F60098
:100714007F30F70022006308F0006408F1006508E8
:10072400F2006608F3009921A02B22006308F00070
:0E0734006408F1006508F2006608F300080092
:1007420020007008F8007108F000F101F201F301D5
:10075200FB01FC019630F300FA01F01FB62BF809F9
:10076200F009F80A0319F00AFA177008F10078087C
:0A077200F000F801F2016420080015
:10077C0022006508F0006608F100F035F10DF03547
:10078C00F10D7008630784007108643D8500000852
:10079C00E70001310008E80001310008E9000131EF
:1007AC000008EA00650866040319162C5F08F000BF
:1007BC006008F1006108F2006208F3006708F400B9
:1007CC006808F5006908F6006A08F700A1210130F5
:1007DC002200E5020030E63B6508F4006608F500EF
:1007EC00F435F50DF435F50D7408630784007508C0
:1007FC00643D85000008F40001310008F50001316A
:10080C000008F60001310008F700ED207008220006
:10081C00E7007108E8007208E9007308EA00D82BB9
:10082C006708F0006808F1006908F2006A08F30034
:02083C000800B2
:10083E007408003A031D382C7508003A031D382C35
:10084E007608003A031D382C7708003A031D382C21
:10085E00FF30F000FF30F1007F30F200FF30F30088
:10086E00D22C200077080319C62C73080319C92C43
:10087E00720876068039FA00F217F617A001720890
:10088E00F8007108FC007008FD007408FD02750880
:10089E00031C750FFC027608031C760FF802F80194
:1008AE00FC01FD01031C622C0310F20CF10CF00C88
:1008BE00F80C0130A0007708F302031C6C2C7E307C
:1008CE002007F3070318CC2C712C7E302007F3077A
:1008DE00031CCF2C1830FA07FD0DFC0DF80DF00D92
:1008EE00F10DF20DA00D7408F0027508031C750FC2
:1008FE00F1027608031C760FF202760DA004201C7E
:10090E008A2C7D14952C7408F00775080318750F42
:10091E00F10776080318760AF2077D10FA031F30E6
:10092E007A05031D732C7B1B7D1CBC2C0310F00D54
:10093E00F10DF20DA00D7408F0027508031C750F71
:10094E00F1027608031C760FF202760D20040139AF
:10095E00FD070318FC0A0319F80A031DBC2CF80C3A
:10096E00FC0CFD0CF30A0319CC2CFA1FF8137808B3
:10097E00F2007C08F1007D08F0000030D12C01302F
:10098E009E21D12C02305D20D12C04304520D12C5B
:08099E000830512000000800A0
:1009A60022004B08F4004C08F5007408F2007508A4
:1009B600F300F40A0319F50A4D08F0004E08F10099
:1009C600CD0A0319CE0A70088400710885007208E2
:1009D6008600730887000008810072088400730887
:1009E600850000080319F82CD82C4B08F0004C0899
:0409F600F100080004
:1009FA0023009E18022D0000FD2C22004B08230024
:040A0A009A00080046
:100A0E002000FD01F8017008031900347406FA0085
:100A1E00FA1BFD09FB01F41F162DF409F40AF01F51
:100A2E001A2DF009F00A70087404FA00FA1B3E2D14
:100A3E007408F802F00D700DF80D7408F807F00D3B
:100A4E000630FC00700DF80D74087018F802701C5A
:100A5E00F807F00DFC0B292D701CF8077B184C2D98
:100A6E00FD1F0034F009F00AF809F80A0034F41FEB
:100A7E00492DF01B462D7008F800F001372DF001BE
:100A8E00F00A0034F009FB0A1F2DF80A74087802E8
:100A9E00031D372DF801F00AF01F372DFF34080023
:100AAE002200D301F401F501F601F7014B08F00025
:100ABE004C08F1004D08F2004E08F3008A22013076
:100ACE0003180030F00070080319782D0030220052
:100ADE00CB060030CC068030CD060030CE0601307D
:100AEE00D30022004B08F0004C08F1004D08F20034
:100AFE004E08F3008330F400F930F5002230F60092
:100B0E007C30F700A12170082200CB007108CC00C8
:100B1E007208CD007308CE007008DF007108E00087
:100B2E007208E1007308E20002237008F4007108F5
:100B3E00F5007208F6007308F70022004B08F0006B
:100B4E004C08F1004D08F2004E08F30099210030D8
:100B5E00F4000030F5000030F6008130F700A121DE
:100B6E0070082200CB007108CC007208CD0073080B
:100B7E00CE007008F4007108F5007208F6007308D4
:100B8E00F7000030F0000030F1000030F20080304D
:100B9E00F3008A22013003180030F00070080319A8
:100BAE00F82D0030F4000030F5000030F6008030F3
:100BBE00F70022004B08F0004C08F1004D08F2003F
:100BCE004E08F300992170082200CB007108CC006A
:100BDE007208CD007308CE0053080130031D00309B
:100BEE00D30022004B08F4004C08F5004D08F60027
:100BFE004E08F7000030F0000030F1000030F20037
:100C0E007F30F3008A22013003180030F0007008A4
:100C1E0003192C2E22004B08F4004C08F5004D0849
:100C2E00F6004E08F7000030F0000030F100003002
:100C3E00F2008030F300992170082200CB00710879
:100C4E00CC007208CD007308CE0022004B08F000D5
:100C5E004C08F1004D08F2004E08F3004B08F4006A
:100C6E004C08F5004D08F6004E08F700A12170085B
:100C7E002200CF007108D0007208D1007308D20094
:100C8E007008DF007108E0007208E1007308E200EE
:100C9E004F30E3008E30E4000430E5000030E60013
:100CAE00BE234B08F4004C08F5004D08F6004E0824
:100CBE00F700A12170082200CB007108CC00720849
:100CCE00CD007308CE004F08DF005008E000510839
:100CDE00E1005208E2006330E3008E30E40003309E
:100CEE00E5000030E600BE237008F4007108F50040
:100CFE007208F6007308F7004B08F0004C08F1007C
:100D0E004D08F2004E08F3001F2470082200CB009D
:100D1E007108CC007208CD007308CE005308031979
:100D2E00A52E00304B06F00000304C06F10080304E
:100D3E004D06F20000304E06F300AD2E4B08F000CB
:0E0D4E004C08F1004D08F2004E08F3000800BA
:100D5C002200CD01CE01CF01D0010030D1000030F6
:100D6C00D2000030D3007F30D400CD30D500CC3051
:100D7C00D6004C30D7007B30D800D901DA014B08B3
:100D8C0084004C08850000082D3A031DD82E003035
:100D9C00D1000030D2008030D3007F30D400D90A8B
:100DAC000319DA0A59084B0784005A084C3D850090
:100DBC000008003A0319CA2F59084B0784005A0837
:100DCC004C3D850030300002031C2E2F59084B0778
:100DDC0084005A084C3D85000008393C031C2E2F1A
:100DEC004D08F0004E08F1004F08F2005008F300D7
:100DFC000030F4000030F5002030F6008230F700AF
:100E0C00A12170082200DB007108DC007208DD00F3
:100E1C007308DE0059084B0784005A084C3D8500C6
:100E2C000008DF00FA22A12322005B08F4005C0812
:100E3C00F5005D08F6005E08F700ED207008220052
:100E4C00CD007108CE007208CF007308D000C52FFA
:100E5C0059084B0784005A084C3D850000082E3A6F
:100E6C00031DB32FD90A0319DA0A59084B0784005A
:100E7C005A084C3D85000008003A0319B22F590856
:100E8C004B0784005A084C3D850030300002031C8F
:100E9C009B2F59084B0784005A084C3D85000008CD
:100EAC00393C031C9B2F59084B0784005A084C3DB6
:100EBC0085000008DF00FA22A12322005508F40067
:100ECC005608F5005708F6005808F700A121220033
:100EDC004D08F4004E08F5004F08F6005008F700D6
:100EEC00ED2070082200CD007108CE007208CF00F2
:100EFC007308D0005508F0005608F1005708F200AE
:100F0C005808F300CD30F400CC30F5004C30F6002E
:100F1C007B30F700A12170082200D5007108D600A3
:100F2C007208D7007308D800AD2F4D08F0004E089A
:100F3C00F1004F08F2005008F3005108F400520879
:100F4C00F5005308F6005408F700A121DB2F22000E
:100F5C00D90A0319DA0A3B2FCA2F4D08F0004E08A4
:100F6C00F1004F08F2005008F3005108F400520849
:100F7C00F5005308F6005408F700A121DB2F2200DE
:100F8C00D90A0319DA0AD82E4D08F0004E08F100E0
:100F9C004F08F2005008F3005108F4005208F50015
:0C0FAC005308F6005408F700A1210800CB
:100FB8002100EF016C0884006D0885000008EE0030
:100FC8006E08003A0319F72F6E082200CB00FD24A3
:100FD8002100EF0A6F086C07840000306D3D850022
:080FE8000008EE00E42F0800F0
:1010000021006C08F4006D08F5006E08F6006F080A
:10101000F700DB30F0000F30F1004930F200803093
:10102000F30080318A228831013003180030F0004B
:10103000700803193C28E430F400CB30F50016307A
:10104000F6008130F70021006C08F0006D08F10017
:101050006E08F2006F08F300803199218831700822
:101060002200CB007108CC007208CD007308CE00BE
:101070008031572588315C2821006C08F0006D080C
:10108000F1006E08F2006F08F300DB30F4000F305F
:10109000F5004930F6007F30F7008031ED208831CF
:1010A00070082200CB007108CC007208CD007308D4
:0A10B000CE0080315725883108007A
:1010BA002100EE01EF0122002F08B5003008B6002A
:1010CA003108B7003208B8003808FF3A031D7728FC
:1010DA003708FF3A031D77283608FF3A031D772899
:1010EA003508FF3A031D87283308CB003408CC00A3
:1010FA003930CD000030CE008031D324883103301E
:10110A00F000BB2A01302100EC002200B71F9E2804
:10111A0080303706F0007008B7002100EC0A220080
:10112A0033088600340887002D308100B30A03197A
:10113A00B40A0030F0003806031DAD2870083706DF
:10114A00031DAD2870083606031DAD283508003A80
:10115A00031DBC283308CB003408CC003D30CD0039
:10116A000030CE008031D3248831F001BB2A380800
:10117A00FF3A031DCA283708003A031DCA28360851
:10118A00003A031DCA283508003A031DDB28330834
:10119A00CB003408CC003F30CD000030CE00803187
:1011AA00D324883121006C08F000BB2A0030F400F7
:1011BA000030F5000030F6007F30F70022003508D5
:1011CA00F0003608F1003708F2003808F3008031E1
:1011DA008A228831013003180030F00070080319A0
:1011EA00162922003508F0003608F1003708F20007
:1011FA003808F3000030F4000030F5002030F60023
:10120A008230F7008031A121883170082200B500B0
:10121A007108B6007208B7007308B8002100EF031E
:10122A00DB280030F4000030F5002030F600823070
:10123A00F70022003508F0003608F1003708F200FE
:10124A003808F30080318A2288310130031C0030CB
:10125A00F00070080319512922003508F0003608F9
:10126A00F1003708F2003808F300CD30F400CC3032
:10127A00F5004C30F6007B30F7008031A12188312F
:10128A0070082200B5007108B6007208B70073082A
:10129A00B8002100EF0A1629FF3022003505F800B0
:1012AA00FF303605F9007F303705FA00003038057F
:1012BA00FB007808F4007908F5007A08F6007B0844
:1012CA00F700F435F50DF60DF70D00303505F00091
:1012DA0000303605F10000303705F200FF303805DE
:1012EA00F3007008B5007108B6007208B7007308F9
:1012FA00B80074083504F00075083604F100760861
:10130A003704F20077083804F3007008B500710852
:10131A00B6007208B7007308B8007F303802F000D0
:10132A0070082100ED0001302200B8007008F400B6
:10133A003508F0003608F1003708F2003808F300E3
:10134A0074080319AE29F035F10DF20DF30DFF3EC5
:10135A00A62922007008B5007108B6007208B70005
:10136A007308B80033088600340887003808303E0E
:10137A008100B30A0319B40A803021006F06F00015
:10138A008030013A7002031CD3298030063AF000FB
:10139A0080306F067002031CD329E029220033082B
:1013AA008600340887002E308100B30A0319B40A74
:1013BA0001302100EE000630ED006D08003A0319F5
:1013CA003F2A2200B8013508F0003608F100370834
:1013DA00F2003808F300F035F10DF20DF30DF03597
:1013EA00F10DF20DF30D3508F0073608F13D370817
:1013FA00F23D3808F33D7008B5007108B60072086E
:10140A00B7007308B8003508F0003608F10037084D
:10141A00F2003808F300F035F10DF20DF30D700803
:10142A00B5007108B6007208B7007308B80033082F
:10143A008600340887003808303E8100B30A031951
:10144A00B40A21006E08003A031D3D2AEF036F0813
:10145A00003A031D3D2A220033088600340887001B
:10146A002E308100B30A0319B40A01302100EE00BC
:10147A00ED03E229FF30220033078400FF30343DB8
:10148A0085000008303A031D4F2A0130B3020030AC
:10149A00B43B3F2AFF3033078400FF30343D8500D8
:1014AA0000082E3A031D5D2A0130B3020030B43B16
:1014BA0021006F08003A0319B42A22003308860073
:1014CA003408870065308100B30A0319B40A8030F2
:1014DA0021006F06F0008030003A70020318832A58
:1014EA00220033088600340887002D308100B30AB1
:1014FA000319B40A21006F08003CEF006F08ED00E1
:10150A008030093AF00080306F06700203189F2A73
:10151A000A30F4006D08F000803107258831220076
:10152A0033088600340887007008303E8100B30A09
:10153A000319B40A0A30F40021006D08F000803162
:10154A00072588317808F00022003308860034081D
:10155A0087007008303E8100B30A0319B40A2200DA
:0E156A0033088600340887008101F001080074
:1015780007302100EF006F086C07840000306D3DD4
:10158800850000082C3A0319CB2AEF0ABF2AEF0A74
:101598006F086C07840000306D3D850000082C3A08
:1015A800031DD82AF001202CEE016F086C07840077
:1015B80000306D3D850000082C3A0319FF2A2F30B2
:1015C8008600013087006E0886070318870A6F08AF
:1015D8006C07840000306D3D850000088100EE0A2C
:1015E8002F308600013087006E0886070318870AA7
:1015F8008101EF0AD92A31302200CB000130CC001A
:101608008031AE26883170082200C3007108C400FA
:101618007208C5007308C600B1012F30CB00013035
:10162800CC008031AE26883170082200C7007108CE
:10163800C8007208C9007308CA000030F4000030FE
:10164800F5007030F6008430F7004308F0004408D5
:10165800F1004508F2004608F30080311F24883164
:1016680022004708F4004808F5004908F6004A082F
:10167800F7008031ED2088317008AC007108AD00AA
:101688007208AE007308AF002100EF0A6F086C07FC
:10169800840000306D3D85000008533A031D5D2B22
:1016A80000302000AC060030AD068030AE060030B9
:1016B800AF0620002C08F0002D08F1002E08F200DB
:1016C8002F08F3003530F400FA30F5000E30F6003C
:1016D8007930F7008031A12188317008A80071089D
:1016E800A9007208AA007308AB002100EF0AEF0AEC
:1016F800EE016F086C07840000306D3D850000081E
:101708002C3A0319A32B2F308600013087006E086E
:1017180086070318870A6F086C07840000306D3D40
:10172800850000088100EE0A2F308600013087000E
:101738006E0886070318870A8101EF0A7D2B32306D
:101748002200CB000130CC008031AE2688317008F1
:101758002200C3007108C4007208C5007308C600DF
:10176800B2012F30CB000130CC008031AE26883159
:1017780070082200C7007108C8007208C900730801
:10178800CA000030F4000030F5007030F6008430F4
:10179800F7004308F0004408F1004508F200460845
:1017A800F30080311F24883122004708F4004808DC
:1017B800F5004908F6004A08F7008031ED20883125
:1017C8007008B0007108B1007208B2007308B30065
:1017D8002100EF0AEF0A6F086C07840000306D3DA6
:1017E80085000008573A031D022C00302000B0067F
:1017F8000030B1068030B2060030B3062000300851
:10180800F0003108F1003208F2003308F3003530F7
:10181800F400FA30F5000E30F6007930F700803128
:10182800A12188317008B5007108B6007208B700A8
:0A1838007308B8000130F00008004A
:1018420021006C0884006D0885000008243A031DFD
:101852005F2C01306C07840000306D3D850000086C
:10186200473A031D5F2C02306C07840000306D3D47
:1018720085000008503A031D5F2C03306C0784007A
:1018820000306D3D85000008473A031D5F2C04308F
:101892006C07840000306D3D85000008473A031D47
:1018A2005F2C05306C07840000306D3D8500000818
:1018B200413A031D5F2C0130F000602CF00108005A
:1018C200FD302100E4000430E5004B30E600013039
:1018D200E7009B30E0000C30E1000030E200003015
:1018E200E300FF302000C300FF30C4000030C50019
:1018F2000030C600FF30C700FF30C8000030C9000A
:101902000030CA0023009E1690309D0021008D14E5
:101912000D112000911E912C23001908F0008A2C31
:021922000800BB
:1019240012001E00F003031D922CF103031D922CE0
:021934000800A9
:1019360023001908F1009D1CA22C1D121D1671080A
:04194600F0000800A5
:10194A007426F030210099008C018D0123008C014E
:10195A008D0121008D1491160B178B1723009F15EB
:10196A0040309B0003309C001E1561242000230890
:10197A0003192A2E2B302100EC002030ED002124FF
:10198A0070080319282E2B30EC002030ED00BC2201
:10199A0070080319282E3430F4002230F5007F3005
:1019AA00F6007B30F70020002808F0002908F10033
:1019BA002A08F2002B08F300803199218831700837
:1019CA002100EC007108ED007208EE007308EF00C8
:1019DA0000207008F4007108F5007208F600730818
:1019EA00F7000030F0000030F1000030F2007F30E4
:1019FA00F3008031992188310030F4000030F5007D
:101A0A000030F6008030F70080311F2488317008DA
:101A1A00A4007108A5007208A6007308A700700840
:101A2A00F4007108F5007208F6007308F7008031B7
:101A3A00A12188317008A4007108A5007208A600C7
:101A4A007308A70034302100EC002230ED007F300B
:101A5A00EE007B30EF00002070082100E8007108DA
:101A6A00E9007208EA007308EB0020002808210048
:101A7A00EC00200029082100ED0020002A0821009E
:101A8A00EE0020002B082100EF000020210068084A
:101A9A00F4006908F5006A08F6006B08F70080315F
:101AAA00A121883170082100E8007108E900720854
:101ABA00EA007308EB003D30F4005A30F500A33019
:101ACA00F6007F30F70020003508F0003608F100F4
:101ADA003708F2003808F3008031992188317008FC
:101AEA002100EC007108ED007208EE007308EF00A7
:101AFA0000207008F4007108F5007208F6007308F7
:101B0A00F7000030F0000030F1000030F2007F30C2
:101B1A00F30080319921883121006808F4006908AE
:101B2A00F5006A08F6006B08F7008031A1218831B8
:101B3A000030F4000030F5000030F6008030F70085
:101B4A0080311F24883170082100E8007108E900FB
:101B5A007208EA007308EB003D30F4005A30F500D1
:101B6A00A330F6007F30F70020003508F000360871
:101B7A00F1003708F2003808F300803199218831E2
:101B8A0070082100EC007108ED007208EE0073087D
:101B9A00EF0000207008F4007108F5007208F600E2
:101BAA007308F7000030F0000030F1000030F20056
:101BBA007F30F30080319921883121006808F400D0
:101BCA006908F5006A08F6006B08F7008031A12160
:101BDA0088310030F4000030F5000030F600803023
:101BEA00F70080311F2488312408F4002508F50005
:101BFA002608F6002708F7008031ED2088317008A2
:101C0A00A4007108A5007208A6007308A7002C0892
:101C1A002200AF0020002D082200B00020002E086C
:101C2A002200B10020002F082200B2002030B300A9
:101C3A000130B4005D2020302100EC000130ED00BD
:0E1C4A008031DC2788312000A301BB2C2B2E1B
:101CE8002F3084008E3085002030F0000130F10064
:0C1CF80023308600003087009224080092
:021C5E00003450
:081C60000034003400340034AC
:081C68000034003400340034A4
:081C700000340034003400349C
:081C7800003400340034003494
:021C800000342E
:081C820000340034003400348A
:081C8A004E3461344E34003485
:041C920030340034B6
:081C960049344E344634003499
:101C9E00EC34F3344A3490343534953495348F34EF
:101CAE001734C1345C348B34FD34DB34ED3486347C
:081CBE007234B3343334803476
:101CC6002B343434013490347F349D3430348B34A7
:101CD600E734FF34593485340034003400347F341B
:020000040001F9
:04000E00843F131701
:00000001FF
