:0400000088319C2D7A
:1000080070082000A2007108A1008031911E3B28D1
:1000180088319225803170082100D10031282000D4
:10002800B8010130A7003B283B2820001930F00018
:100038002030F1003808700786000030713D8700D5
:100048002100510881002000B80A3808700786008E
:100058000030713D870081013B28210051080D3A8D
:100068000319132851080A3A0319182819282000D7
:0A0078002208F0002108F100090041
:0E008200F201F101F001F801F3010030080075
:100090007B15FB1F52280130F300F201F101F00142
:0800A000FA0DF20CFF3008001C
:0800A800FA1FF21300300800FA
:1000B000FB14FB1F6228FF30F300F200F100F00098
:0800C000FA0DF20CFF300800FC
:1000C800A0017208031D79287108F2007008F10078
:1000D800F001A0157208031D79287108F200F101DA
:1000E800A01120167208031987282008F302031D9F
:1000F800031C8B280310F21B8F28F00DF10DF20D55
:10010800F30B7F288B280130FC0041209228023015
:0E011800FC00482092280430FC00542008000F
:100126007C18C928FC189A287C19E8289328A0016D
:100136007208031DBA287108F2007008F1007808E9
:10014600F000F801A0157208031DBA287108F20024
:100156007008F100F001A01120167208031DBA28DC
:100166007108F200F101A01572080319DC282008B5
:10017600F302031D031CE0280310F21BC928F80D27
:10018600F00DF10DF20DF30BC028E0287B1B701C5F
:10019600E428F81FE428F00A0319F10A0319F20A01
:1001A600031DE428F20CF10CF00CF30A0319E828FD
:1001B600E4280130FC004120EB280230FC004820F6
:1001C600EB280430FC005420EB280830FC005820B3
:0401D600000008001D
:1001DA007B14FB1FF828F201FA1FFF30F200F1002E
:0A01EA00F000FA0DF20CFF300800DF
:1001F400200072087606A000F801F901730877025E
:10020400031C1C297708FD007308F7007D08F30020
:100214007608FD007208F6007D08F2007508FD00FE
:100224007108F5007D08F1007408FD007008F40001
:100234007D08F0007708031995297208FA00F2176F
:10024400F61777087302F70003194F29083077026D
:10025400031C4529F7007408F9007508F4007608B2
:10026400F500F60108307702031C4529F7007408ED
:10027400F9007508F400F50108307702031C4529DC
:100284007A08F2009529770803194F290310F60C10
:10029400F50CF40CF90CF70B4829A01F5C29F9099B
:1002A400F409F509F609F90A0319F40A0319F50A18
:1002B4000319F60A7908F80774080318740FF0078D
:1002C40075080318750FF10776080318760FF207FF
:1002D400A01B7529031C8529F20CF10CF00CF80CF9
:1002E400F30F8529912903188929F809F009F109DF
:1002F400F209F80A0319F00A0319F10A0319F20AB8
:100304008030FA068D290130FC00932097290230B1
:10031400FC00932097290430FC00642097290830BE
:0E032400FC00582097290030FC000000080063
:100332002000FB01FC01F80173080319102A72085E
:10034200FA00F2179E30F302F31F002AF309F30AB0
:1003520008307302031CD529F300F80D7008F80069
:100362007108F0007208F100F20108307302031CF8
:10037200D529F300F80D7008F8007108F000F101BA
:1003820008307302031CD529F300F80D7008F80039
:10039200F00108307302031CD529F300F80DF801AF
:1003A2007308031D0310DF2973080319DF290310E3
:1003B200F20CF10CF00CF80CF30BD8297B1B781C17
:1003C200ED29031CED29F80A0319F00A0319F10AB1
:1003D2000319F20AF21B0D2AFA1F102AF209F10977
:1003E200F009F809F80A0319F00A0319F10A0319C6
:1003F200F20A102AF201F101F001F801102A7B142D
:10040200FB1F132AF201FA1F132AF200F100F00077
:10041200F800FA0DF20C132A0130FC00152A003004
:10042200FC00152AFF30FC00FC080319192AED20F4
:100432007208F3007108F2007008F1007808F00009
:020442000800B0
:1004440020007008F8007108F0007208F1007308C9
:10045400F200F301FB01FC019E30F300FA01F21FEC
:100464003F2AF809F009F109F209F80A0319F00A18
:100474000319F10A0319F20AFA170230FC00932057
:0204840008006E
:10048600710DF80DF90D7408F8027508031C750F47
:10049600F902F00DF10D0F30FC00710DF80DF90D9C
:1004A6007408701C5C2AF8027508031C750FF902A3
:1004B600612AF80775080318750FF907F00DF10D95
:1004C600FC0B502A70186D2A7408F8077508031873
:0804D600750FF9070000080092
:1004DE002000FA017308031D7A147708031DFA141D
:1004EE007A080319BA2A033A0319852A7A18822A36
:1004FE00F61FB82AB62AF21FB62AB82A7208803911
:10050E00FA00F21376088039F6137A060319932A45
:10051E007A080319B62AB82A7708730203199A2A99
:10052E00031CAE2AB22A760872020319A12A031CF2
:10053E00AE2AB22A750871020319A82A031CAE2A24
:10054E00B22A740870020319BA2A0318B22AFA08DA
:10055E000319B82AB62AFA080319B62AB82A0314B8
:0E056E0008000310080003140315080008001D
:06057C00FB15FF30080032
:1005820020007008F8007108F000F101F201F30197
:10059200FB01FC019630F300FA01F01FD62AF8099C
:1005A200F009F80A0319F00AFA177008F10078083E
:0A05B200F000F801F20164200800D7
:0A05BC0020008030F606FA20080047
:1005C6002000FB017308031D77080319392B7208F5
:1005D6007606FA007708F3077E30031CF62AF30244
:1005E60003183C2BF92AF302031C3F2B7208F80070
:1005F6007108FC007008FD00F817F6170310F201E9
:10060600F101F0011830A0007D1C132B7408F007CF
:1006160075080318750FF10776080318760FF207A9
:10062600F20CF10CF00CF80CFC0CFD0C0310A00BFA
:10063600072BF21B232BF80DF00DF10DF20DF30332
:100646007B1B701C352BF81F352BF00A0319F10A9A
:100656000319F20A031D352BF20CF10CF00CF30A08
:1006660003193C2BFA1FF2130030412B01304120B5
:10067600412B02305820412B04304820000008004E
:10068600303022005402F000F1010030F13B080046
:100696004130F4000130F500033074078400003067
:1006A600753D85007E300002F000F1010030F13B1F
:1006B60022004508860046088700700881007108F8
:1006C600413181000330740786000030753D870094
:1006D6007E3081004108F0004208F1004308F20034
:0606E6004408F3000800C7
:1006EC0022004408F000F101F201F301FF30F005A3
:1006FC000030F1057008C9007108CA007F30700223
:10070C00F2000030713BF3007208C9007308CA0094
:10071C0080307306F00080307002031D972B003080
:10072C0072020318BB2BF401F501F601F701410825
:10073C00F0004208F1004308F2004408F3006F2275
:10074C00013003180030F00070080319B62B00308C
:10075C00F0000030F1008030F2007F30F300142CF8
:10076C00F001F101F201F301142C22004A08003CC3
:10077C00031DC22B4908183C0318CD2B4108F0006F
:10078C004208F1004308F2004408F300142C41081D
:10079C00F0004208F1004308F2004408F3009921EC
:1007AC00222270082200C5007108C6007208C7001A
:1007BC007308C8007008F4007108F5007208F600A0
:1007CC007308F7004108F0004208F1004308F200FA
:1007DC004408F3006F22013003180030F000700859
:1007EC0003190B2C0030F4000030F5000030F6003B
:1007FC007F30F70022004508F0004608F10047085A
:10080C00F2004808F300DE22142C22004508F00008
:0E081C004608F1004708F2004808F300080003
:10082A002000FB0173080319512C7208FA00F21711
:10083A008E30F302F31F542CF309F30A08307302C3
:10084A00031C372CF300F10D7208F100F201083095
:10085A007302031C372CF300F10DF1017308031D19
:10086A0003103F2C730803193F2C0310F20CF10CF0
:10087A00F30B3A2C7B1B711C492C031C492CF10AE3
:10088A000319F20AF21B602CFA1F632CF209F10910
:10089A00F10A0319F20A632CF201F101632C7B14A9
:1008AA00FB1F662CF201FA1F662CFF30F200F100E2
:1008BA00FA0DF20C662C0130FC00682C0030FC00AA
:1008CA00682CFF30FC00FC0803196C2CED20710821
:0808DA00F0007208F1000800B3
:1008E200200073087706031D832C72087606031D09
:1008F200832C71087506031D832C70087406031976
:0A09020003150800031108000800A7
:10090C0022004708F0004808F100F035F10DF035F1
:10091C00F10D7008450784007108463D85000008FC
:10092C00C90001310008CA0001310008CB000131B7
:10093C000008CC00470848040319DE2C4108F000DD
:10094C004208F1004308F2004408F3004908F4009F
:10095C004A08F5004B08F6004C08F700E32201307A
:10096C002200C7020030C83B4708F4004808F500D5
:10097C00F435F50DF435F50D74084507840075084C
:10098C00463D85000008F40001310008F5000131F6
:10099C000008F60001310008F700FA207008220068
:1009AC00C9007108CA007208CB007308CC00A02CD7
:1009BC004908F0004A08F1004B08F2004C08F3001B
:0209CC00080021
:1009CE007408003A031D002D7508003A031D002D12
:1009DE007608003A031D002D7708003A031D002DFE
:1009EE00FF30F000FF30F1007F30F200FF30F300F7
:1009FE009A2D2000770803198E2D73080319912D57
:100A0E00720876068039FA00F217F617A0017208FE
:100A1E00F8007108FC007008FD007408FD027508EE
:100A2E00031C750FFC027608031C760FF802F80102
:100A3E00FC01FD01031C2A2D0310F20CF10CF00C2D
:100A4E00F80C0130A0007708F302031C342D7E3021
:100A5E002007F3070318942D392D7E302007F30756
:100A6E00031C972D1830FA07FD0DFC0DF80DF00D37
:100A7E00F10DF20DA00D7408F0027508031C750F30
:100A8E00F1027608031C760FF202760DA004201CEC
:100A9E00522D7D145D2D7408F00775080318750F1F
:100AAE00F10776080318760AF2077D10FA031F3055
:100ABE007A05031D3B2D7B1B7D1C842D0310F00D31
:100ACE00F10DF20DA00D7408F0027508031C750FE0
:100ADE00F1027608031C760FF202760D200401391E
:100AEE00FD070318FC0A0319F80A031D842DF80CE0
:100AFE00FC0CFD0CF30A0319942DFA1FF813780859
:100B0E00F2007C08F1007D08F0000030992D0130D4
:100B1E00BE22992D02304120992D04305820992D56
:080B2E00083048200000080017
:100B360041302200C7000130C80003304707840057
:100B46000030483D850000084507F1000030463D6D
:100B5600F2007108C5007208C60080307206F00007
:100B660080307002031DB92D003071020318C02DAC
:100B7600F001F101F201F301022E8030F000803025
:100B860046067002031DC92D4508FF3C0318F12DCA
:100B9600F401F501F601F7014108F0004208F10001
:100BA6004308F2004408F3006F22013003180030B6
:100BB600F00070080319E82DFF30F000FF30F10057
:100BC600FF30F200FF30F300022EFF30F000FF305E
:100BD600F1007F30F200FF30F300022E03302200D6
:100BE600470786000030483D8700450881004108D8
:100BF600F0004208F1004308F2004408F300080040
:100C06007408003A031D102E7508003A031D102EB5
:100C1600FF30F0007F30F100682E2000FD01F90161
:100C2600F801710870040319003471087506FA009A
:100C3600FA1BFD09FB01F51F252EF409F509F40A37
:100C46000319F50AF11F2C2EF009F109F00A031910
:100C5600F10A71087504FA00FA1B412E43227B182B
:100C6600542EFD1F0034F009F109F00A0319F10AA8
:100C7600F809F909F80A0319F90A0034F51F502E84
:100C8600F11B4C2E7108F9007008F800F101F00113
:100C9600342EF101F001F00A0034F109F009FB0AE3
:100CA600312EF80A0319F90A74087802031D342E46
:100CB60075087902031D342EF901F801F00A0319AB
:0C0CC600F10AF11F342E0000FF3408007A
:100CD20023009E186E2E0000692E22004108230078
:040CE2009A0008006C
:100CE6002200C301C401C501C6010030C70000309F
:100CF600C8000030C9007F30CA00CD30CB00CC30F0
:100D0600CC004C30CD007B30CE00CF0141088400B2
:100D16004208850000082D3A031D9A2E0030C700B0
:100D26000030C8008030C9007F30CA00CF0A4F08A3
:100D3600410784000030423D85000008003A03194F
:100D4600862F4F08410784000030423D8500303031
:100D56000002031CF02E4F08410784000030423D7C
:100D660085000008393C031CF02E4308F0004408B7
:100D7600F1004508F2004608F3000030F4000030A8
:100D8600F5002030F6008230F700E32270082200DA
:100D9600D0007108D1007208D2007308D3004F0842
:100DA600410784000030423D85000008D4004323FB
:100DB600C12222005008F4005108F5005208F6003E
:100DC6005308F700FA2070082200C3007108C40017
:100DD6007208C5007308C600832F4F0841078400B8
:100DE6000030423D850000082E3A031D712FCF0AC0
:100DF6004F08410784000030423D85000008003A54
:100E06000319702F4F08410784000030423D8500CA
:100E160030300002031C5B2F4F084107840000306E
:100E2600423D85000008393C031C5B2F4F084107F3
:100E360084000030423D85000008D4004323C122CF
:100E460022004B08F4004C08F5004D08F6004E0849
:100E5600F700E32222004308F4004408F5004508A1
:100E6600F6004608F700FA2070082200C300710851
:100E7600C4007208C5007308C6004B08F0004C0891
:100E8600F1004D08F2004E08F300CD30F400CC30EE
:100E9600F5004C30F6007B30F700E32270082200A4
:100EA600CB007108CC007208CD007308CE006D2F00
:100EB6004308F0004408F1004508F2004608F30034
:100EC6004708F4004808F5004908F6004A08F70004
:100ED600E322972F2200CF0AFB2E862F4308F0002D
:100EE6004408F1004508F2004608F3004708F400FC
:100EF6004808F5004908F6004A08F700E322972F4C
:100F06002200CF0A9A2E4308F0004408F100450853
:100F1600F2004608F3004708F4004808F5004908BF
:0A0F2600F6004A08F700E322080075
:100F30002200A40121006D0884006E0885000008CD
:100F4000EF006F08003A0319B52F6F082200C100A7
:100F500069262200A40A240821006D0784000030BD
:0C0F60006E3D85000008EF00A12F080086
:100F6C0012001E00F003031DB62FF103031DB62F54
:020F7C0008006B
:100F7E0021006D0884006E0885000008243A031DC8
:100F8E00FD2F01306D07840000306E3D8500000896
:100F9E00473A031DFD2F02306D07840000306E3D71
:100FAE0085000008503A031DFD2F03306D078400A5
:100FBE0000306E3D85000008473A031DFD2F0430BA
:100FCE006D07840000306E3D85000008473A031D12
:100FDE00FD2F05306D07840000306E3D8500000842
:100FEE00413A031DFD2F0130F000FE2FF0010800E5
:1010000022002408AA002508AB002608AC00270807
:10101000AD002100EF012200B201F401F501F6015B
:10102000F7012A08F0002B08F1002C08F2002D0827
:10103000F30080316F228831013003180030F00056
:1010400070080319382800302200AA060030AB06C9
:101050008030AC060030AD0621006F082200280762
:1010600086000030293D87002D3081002100EF0AE5
:1010700022002A08F0002B08F1002C08F2002D08AD
:10108000F30080311524883170082100ED007108CB
:10109000EE006F0822002807B3000030293DB4009D
:1010A0006430F4000030F5008031032688313030A0
:1010B000F00722003308860034088700700881009A
:1010C0002100EF0A6F0822002807B3000030293DF5
:1010D000B4000A30F4000030F50021006D08F00083
:1010E0006E08F1008031032688310A30F4000030A8
:1010F000F5008031032688317808F0007908F10086
:101100003030F0072200330886003408870070086A
:1011100081002100EF0A6F0822002807B300003089
:10112000293DB4000A30F4000030F50021006D08BC
:10113000F0006E08F1008031032688317808F00055
:101140007908F1003030F0072200330886003408B7
:101150008700700881002100EF0A6F08220028072D
:1011600086000030293D87002E3081002100EF0AE3
:101170006D08F0006E08F1008031C12288317008DE
:10118000F4007108F5007208F6007308F7002200F9
:101190002A08F0002B08F1002C08F2002D08F300BB
:1011A0008031DE22883170082200AE007108AF0065
:1011B0007208B0007308B1000630320203183729F4
:1011C0002E08F0002F08F1003008F2003108F3007B
:1011D0000030F4000030F5002030F6008230F700D7
:1011E0008031E322883170082200AE007108AF0020
:1011F0007208B0007308B10080311524883170087E
:101200002100ED007108EE006F082200280786001B
:101210000030293D87003030F00770088100210040
:10122000EF0A6D08F0006E08F1008031C1228831AC
:101230007008F4007108F5007208F6007308F700F2
:1012400022002E08F0002F08F1003008F2003108CB
:10125000F3008031DE22883170082200AE00710870
:10126000AF007208B0007308B100B20ADC28210098
:101270006F082200280786000030293D8700810181
:02128000080064
:101282002100ED01F401F501F601F7012200240825
:10129200F0002508F1002608F2002708F30080314B
:1012A2006F228831013003180030F00070080319F2
:1012B200662900302200A4060030A5068030A6066A
:1012C2000030A70601302100ED0022002408F000C2
:1012D2002508F1002608F2002708F3008330F40005
:1012E200F930F5002230F6007C30F7008031E3223D
:1012F200883170082200A4007108A5007208A600B7
:101302007308A7007008C1007108C2007208C30008
:101312007308C4008031762388317008F4007108A4
:10132200F5007208F6007308F70022002408F000A6
:101332002508F1002608F2002708F3008031DE229A
:1013420088310030F4000030F5000030F6008130C2
:10135200F7008031E322883170082200A40071086E
:10136200A5007208A6007308A7007008F4007108AF
:10137200F5007208F6007308F7000030F000003044
:10138200F1000030F2008030F30080316F228831AA
:10139200013003180030F00070080319F3290030FF
:1013A200F4000030F5000030F6008030F700220033
:1013B2002408F0002508F1002608F2002708F300AF
:1013C2008031DE22883170082200A4007108A50055
:1013D2007208A6007308A70021006D080130031DE2
:1013E2000030ED0022002408F4002508F50026084C
:1013F200F6002708F7000030F0000030F10000305E
:10140200F2007F30F30080316F22883101300318FF
:101412000030F000700803192B2A22002408F4007F
:101422002508F5002608F6002708F7000030F0002E
:101432000030F1000030F2008030F3008031DE2213
:10144200883170082200A4007108A5007208A60065
:101452007308A70022002408F0002508F1002608DE
:10146200F2002708F3002408F4002508F5002608F6
:10147200F6002708F7008031E32288317008220045
:10148200A8007108A9007208AA007308AB007008CE
:10149200C1007108C2007208C3007308C4003C3066
:1014A200C5008F30C6000430C7000030C80080314C
:1014B200862488312408F4002508F5002608F60061
:1014C2002708F7008031E322883170082200A40047
:1014D2007108A5007208A6007308A7002808C100B9
:1014E2002908C2002A08C3002B08C4005030C500D6
:1014F2008F30C6000330C7000030C8008031862418
:1015020088317008F4007108F5007208F60073085B
:10151200F7002408F0002508F1002608F200270849
:10152200F3008031E724883170082200A40071089A
:10153200A5007208A6007308A70021006D08031910
:10154200B02A003022002406F00000302506F10007
:1015520080302606F20000302706F300B92A220066
:101562002408F0002508F1002608F2002708F300FD
:0215720008006F
:1015740022002408F4002508F5002608F6002708B0
:10158400F700F001F101F201F30180316F2288319B
:101594000130031C0030F00070080319D62AF00152
:1015A400F101F201F301EB2B22002408A800250825
:1015B400A9002608AA002708AB000030F400003078
:1015C400F5000030F6007F30F7002408F00025080D
:1015D400F1002608F2002708F30080316F228831D9
:1015E400013003180030F00070080319162B220094
:1015F4002808F4002908F5002A08F6002B08F7004B
:101604000030F0000030F1000030F2007F30F300D1
:101614008031E724883170082200A8007108A900ED
:101624007208AA007308AB0022002808C100290828
:10163400C2002A08C3002B08C400EE30C5000030E5
:10164400C60080314B2388317008A8007108A900B6
:101654007208AA007308AB007008C1007108C200C8
:101664007208C3007308C40021006E082200C5007C
:1016740021006F082200C600C637C50CC61F472BC1
:10168400031C472BC50A0319C60A80319B258831E0
:1016940070082200A8007108A9007208AA00730843
:1016A400AB000030F4000030F5000030F6007F306D
:1016B400F7002408F0002508F1002608F2002708A6
:1016C400F30080316F228831013003180030F000BC
:1016D400700803198A2B22002808F4002908F50051
:1016E4002A08F6002B08F7000030F0000030F10063
:1016F4000030F2007F30F3008031E7248831700835
:101704002200A8007108A9007208AA007308AB009F
:1017140014302100ED0022002808F4002908F50007
:101724002A08F6002B08F7002408F0002508F10029
:101734002608F2002708F3008031E72488312200CC
:101744002808F4002908F5002A08F6002B08F700F9
:101754008031FA2088310030F4000030F500003088
:10176400F6008030F7008031E724883170082200C9
:10177400AC007108AD007208AE007308AF00280811
:10178400F4002908F5002A08F6002B08F700803138
:10179400712488310130031D0030F00070080319F2
:1017A400D42BE22B22002C08A8002D08A9002E0817
:1017B400AA002F08AB002100ED036D08031D8D2B3B
:1017C40022002808F0002908F1002A08F2002B085A
:0417D400F300080016
:1017D80007302200BC003C0821006D07840000305F
:1017E8006E3D850000082C3A0319FD2B2200BC0A27
:1017F800EF2B2200BC0A3C0821006D078400003052
:101808006E3D850000082C3A031D0C2CF001612D5B
:10181800EF0122003C0821006D07840000306E3D76
:10182800850000082C3A0319382C24308600013032
:1018380087006F0886070318870A22003C082100E2
:101848006D07840000306E3D850000088100EF0AB6
:1018580024308600013087006F0886070318870A3E
:1018680081012200BC0A0D2C22002630C100013063
:10187800C20080317326883170082200B8007108D0
:10188800B9007208BA007308BB00A6012430C10071
:101898000130C20080317326883170082200BD00F3
:1018A8007108BE007208BF007308C0000030F40061
:1018B8000030F5007030F6008430F7003808F0008A
:1018C8003908F1003A08F2003B08F3008031E724B8
:1018D800883122003D08F4003E08F5003F08F60074
:1018E8004008F7008031FA2088317008A800710894
:1018F800A9007208AA007308AB002200BC0A3C08C1
:1019080021006D07840000306E3D85000008533AC1
:10191800031D972C00302000A8060030A90680304F
:10192800AA060030AB0620002808F0002908F100BC
:101938002A08F2002B08F3003530F400FA30F500DD
:101948000E30F6007930F7008031E32288317008D4
:10195800AC007108AD007208AE007308AF00220039
:10196800BC0ABC0A2100EF0122003C0821006D07D7
:10197800840000306E3D850000082C3A0319E32CE2
:1019880024308600013087006F0886070318870A0D
:1019980022003C0821006D07840000306E3D850060
:1019A80000088100EF0A24308600013087006F08A4
:1019B80086070318870A81012200BC0AB82C220076
:1019C8002730C1000130C200803173268831700889
:1019D8002200B8007108B9007208BA007308BB0089
:1019E800A7012430C1000130C2008031732688313C
:1019F80070082200BD007108BE007208BF0073089D
:101A0800C0000030F4000030F5007030F60084307B
:101A1800F7003808F0003908F1003A08F2003B08EE
:101A2800F3008031E724883122003D08F4003E08A5
:101A3800F5003F08F6004008F7008031FA208831A9
:101A48007008B0007108B1007208B2007308B300E2
:101A58002200BC0ABC0A3C0821006D078400003043
:101A68006E3D85000008573A031D432D00302000C5
:101A7800B0060030B1068030B2060030B306200050
:101A88003008F0003108F1003208F2003308F300A2
:101A98003530F400FA30F5000E30F6007930F700F2
:101AA8008031E32288317008A3007108A40072080D
:0C1AB800A5007308A6000130F000080033
:101AC40069302100D2000630D3004130D400013007
:101AD400D5009230D6000D30D7000030D800003049
:101AE400D900FF30DA00FF30DB000030DC000030CA
:101AF400DD00FF30CD00FF30CE000030CF000030DD
:101B0400D00023009E1690309D0021008D140D11ED
:101B14002000911E912D23001908F0008A2D080041
:101B240023001908F1009D1C992D1D121D16710822
:041B3400F0000800B5
:101B38002000A301A401A501A601A701A801A901EC
:101B4800AA01AB01AC01AD01AE01AF01B001B10119
:101B5800B201B301B401B501B601B701B801F03063
:101B6800210099008C018D0123008C018D01210039
:101B78008D1491160B178B1723009F1540309B006F
:101B880003309C001E1562252000270803193A2FF0
:101B980019302100ED002030EE008031BF27883158
:101BA80070080319382F1930ED002030EE00EC23AF
:101BB80070080319382F3430F4002230F5007F30D4
:101BC800F6007B30F70020002C08F0002D08F1000B
:101BD8002E08F2002F08F3008031DE228831003011
:101BE800F4000030F5000030F6008030F700803156
:101BF800E724883170082200A4007108A500720843
:101C0800A6007308A700412170082000B4007108DD
:101C1800B5007208B6007308B7007008F4007108C0
:101C2800F5007208F6007308F7008031E322883166
:101C38007008B4007108B5007208B6007308B700E0
:101C4800FB302200A4000130A5005930A6007F30E7
:101C5800A70041217008A0007108A1007208A20025
:101C68007308A30020002C08F0002D08F1002E08AE
:101C7800F2002F08F300D830F4000F30F500493097
:101C8800F6007F30F7008031FA2088317008220092
:101C9800A4007108A5007208A6007308A7004121D6
:101CA8002008F4002108F5002208F6002308F700B0
:101CB8008031E322883170082200A0007108A10059
:101CC8007208A2007308A3003D30F4005A30F500F2
:101CD800A330F6007F30F70020002308F000240826
:101CE800F1002508F2002608F3008031DE22883151
:101CF8000030F4000030F5000030F6008030F700C6
:101D08008031E724883170082200A4007108A500FA
:101D18007208A6007308A70041212008F4002108D2
:101D2800F5002208F6002308F7008031E322883105
:101D380070082200A0007108A1007208A2007308B0
:101D4800A3003D30F4005A30F500A330F6007F3090
:101D5800F70020002308F0002408F1002508F2000D
:101D68002608F3008031DE2288310030F40000308C
:101D7800F5000030F6008030F7008031E724883124
:101D880070082200A4007108A5007208A600730854
:101D9800A70041212008F4002108F5002208F600D8
:101DA8002308F7008031E32288313408F40035082D
:101DB800F5003608F6003708F7008031FA20883138
:101DC8007008B4007108B5007208B6007308B7004F
:101DD80070082200A4007108A5007208A600730804
:101DE800A700BA2270082000B4007108B500720874
:101DF800B6007308B70028082200A40020002908AC
:101E08002200A50020002A082200A60020002B0896
:101E18002200A700DE30A8000030A9000020DE3034
:101E28002100ED000030EE00803198278831200035
:101E380030082200A400200031082200A50020005C
:101E480032082200A600200033082200A700DE3056
:101E5800A8000030A9000020DE302100ED0000308D
:101E6800EE008031982788312000A701C82D3B2F2C
:101E7800EC34F3344A3490343534953495348F3413
:101E88001734C1345C348B34FD34DB34ED348634A0
:081E98007234B334333480349A
:101EA0002B343434013490347F349D3430348B34CB
:101EB000E734FF34593485340034003400347F343F
:020000040001F9
:04000E00843F131701
:00000001FF
