:0200000047298E
:1000080070082000A1007108A0008031911E3928D5
:10001800792070082100CA002F282000A301013090
:10002800A4003928392820000A30F0002030F100D7
:100038002308700786000030713D870021004A08B8
:1000480081002000A30A2308700786000030713D54
:1000580087008101392821004A080D3A031911281F
:100068004A080A3A03191628172820002108F00020
:060078002008F100090060
:10007E0012001E00F003031D3F28F103031D3F284D
:02008E00080068
:10009000FF302000A600FF30A700FF30A800FF308F
:1000A000A90079302100BE000030BF000030C00040
:1000B0000030C100FF30C200FF30C3000030C40078
:1000C0000030C500FF30C600FF30C7000030C80058
:1000D0000030C90023009E1690309D0021008D1431
:1000E0000D112000911E782823001908F0007128B6
:0200F000080006
:1000F20023001908F1009D1C80281D121D1671088D
:04010200F000080001
:1001060021004B0884004C0885000008243A031D92
:10011600C12801304B07840000304C3D85000008A3
:10012600473A031DC12802304B07840000304C3D7E
:1001360085000008503A031DC12803304B07840090
:1001460000304C3D85000008473A031DC1280430A5
:100156004B07840000304C3D85000008473A031DDC
:10016600C12805304B07840000304C3D850000084F
:10017600413A031DC1280130F000C228F0010800F1
:100186000730F200720821004B07840000304C3D16
:10019600850000082C3A0319D228F20AC528F20A6B
:1001A60072084B07840000304C3D850000082C3A4D
:1001B600031DDF28F0014629F10172084B07840070
:1001C60000304C3D850000082C3A031906292030E2
:1001D600860001308700710886070318870A7208AF
:1001E6004B07840000304C3D850000088100F10A71
:1001F6002030860001308700710886070318870AB9
:100206008101F20AE028F20A72084B0784000030E6
:100216004C3D850000082000A200F20AF20AF10116
:10022600720821004B07840000304C3D8500000811
:100236002C3A03193A2920308600013087007108CC
:1002460086070318870A72084B07840000304C3D66
:10025600850000088100F10A203086000130870001
:10026600710886070318870A8101F20A1329F20A20
:1002760072084B07840000304C3D850000082000C2
:08028600A5000130F0000800A2
:10028E002000A201A301A401A501F03021009900D4
:10029E008C0123008C01210091160B178B17230064
:1002AE009F1582309B0006309C001E1548202000B2
:1002BE002408031975290A302100CB002030CC0008
:1002CE0083207008031973290A30CB002030CC002C
:1002DE00C3207008031973292000A4015E29762912
:020000040001F9
:04000E00843F131701
:00000001FF
