:040000008831732CA4
:1000080070082000A2007108A1008031911E3928D3
:10001800F22770082100D1002F2801302000A70006
:10002800B8013928392820001930F0002030F100B3
:100038003808700786000030713D8700210051089C
:1000480081002000B80A3808700786000030713D2A
:10005800870081013928210051080D3A0319112818
:1000680051080A3A03191628172820002208F00018
:060078002108F10009005F
:10007E00FB14FB1F4928FF30F300F200F100F000E3
:08008E00FA0DF20CFF3008002E
:08009600FA1FF213003008000C
:10009E007B15FB1F59280130F300F201F101F0012D
:0800AE00FA0DF20CFF3008000E
:0E00B600F201F101F001F801F3010030080041
:1000C4007C189828FC1869287C19B7286228A00194
:1000D4007208031D89287108F2007008F10078087D
:1000E400F000F801A0157208031D89287108F200B8
:1000F4007008F100F001A01120167208031D892870
:100104007108F200F101A01572080319AB28200848
:10011400F302031D031CAF280310F21B9828F80DEB
:10012400F00DF10DF20DF30B8F28AF287B1B701C23
:10013400B328F81FB328F00A0319F10A0319F20AC5
:10014400031DB328F20CF10CF00CF30A0319B728C1
:10015400B3280130FC005B20BA280230FC004F2099
:10016400BA280430FC004B20BA280830FC003F2099
:04017400000008007F
:10017800A0017208031DD1287108F2007008F1006F
:10018800F001A0157208031DD1287108F200F101D1
:10019800A011201672080319DF282008F302031D96
:1001A800031CE3280310F21BE728F00DF10DF20DF4
:1001B800F30BD728E3280130FC005B20EA28023043
:0E01C800FC004F20EA280430FC004B20080009
:1001D60020007008F8007108F000F101F201F30147
:1001E600FB01FC019630F300FA01F01F0029F80923
:1001F600F009F80A0319F00AFA177008F1007808EE
:0A020600F000F801F201BC2008002E
:100210007B14FB1F1329F201FA1FFF30F200F100DB
:0A022000F000FA0DF20CFF300800A8
:10022A00710DF80DF90D7408F8027508031C750FA5
:10023A00F902F00DF10D0F30FC00710DF80DF90DFA
:10024A007408701C2E29F8027508031C750FF90230
:10025A003329F80775080318750FF907F00DF10D22
:10026A00FC0B222970183F297408F807750803182F
:08027A00750FF90700000800F0
:10028200303022005402F000F1010030F13B08004E
:10029200200072087606A000F801F90173087702BF
:1002A200031C6B297708FD007308F7007D08F30033
:1002B2007608FD007208F6007D08F2007508FD0060
:1002C2007108F5007D08F1007408FD007008F40063
:1002D2007D08F00077080319E4297208FA00F21782
:1002E200F61777087302F70003199E290830770280
:1002F200031C9429F7007408F9007508F4007608C5
:10030200F500F60108307702031C9429F7007408FF
:10031200F9007508F400F50108307702031C9429EE
:100322007A08F200E429770803199E290310F60CD3
:10033200F50CF40CF90CF70B9729A01FAB29F9095E
:10034200F409F509F609F90A0319F40A0319F50A79
:100352000319F60A7908F80774080318740FF007EE
:1003620075080318750FF10776080318760FF20760
:10037200A01BC429031CD429F20CF10CF00CF80CBC
:10038200F30FD429E0290318D829F809F009F10953
:10039200F209F80A0319F00A0319F10A0319F20A19
:1003A2008030FA06DC290130FC006220E6290230A6
:1003B200FC006220E6290430FC00BC20E62908305B
:0E03C200FC003F20E6290030FC00000008008F
:1003D0002000FA017308031D7A147708031DFA142C
:1003E0007A080319332A033A0319FE297A18FB29DC
:1003F000F61F312A2F2AF21F2F2A312A720880393C
:10040000FA00F21376088039F6137A0603190C2ADB
:100410007A0803192F2A312A770873020319132A3D
:10042000031C272A2B2A7608720203191A2A031C96
:10043000272A2B2A750871020319212A031C272A4F
:100440002B2A740870020319332A03182B2AFA087E
:100450000319312A2F2AFA0803192F2A312A0314E3
:0E04600008000310080003140315080008002C
:10046E002000FB017308031D770803198D2A7208FB
:10047E007606FA007708F3077E30031C4A2AF30249
:10048E000318902A4D2AF302031C932A7208F800CF
:10049E007108FC007008FD00F817F6170310F20142
:1004AE00F101F0011830A0007D1C672A7408F007D6
:1004BE0075080318750FF10776080318760FF20703
:1004CE00F20CF10CF00CF80CFC0CFD0C0310A00B54
:1004DE005B2AF21B772AF80DF00DF10DF20DF303E6
:1004EE007B1B701C892AF81F892AF00A0319F10A4E
:1004FE000319F20A031D892AF20CF10CF00CF30A0F
:10050E000319902AFA1FF2130030952A01305B204E
:10051E00952A02303F20952A04304F200000080013
:06052E00FB15FF30080080
:100534007408003A031DB32A7508003A031DB32A50
:100544007608003A031DB32A7708003A031DB32A3C
:10055400FF30F000FF30F1007F30F200FF30F30095
:100564004D2B200077080319412B73080319442BE2
:10057400720876068039FA00F217F617A00172089D
:10058400F8007108FC007008FD007408FD0275088D
:10059400031C750FFC027608031C760FF802F801A1
:1005A400FC01FD01031CDD2A0310F20CF10CF00C1C
:1005B400F80C0130A0007708F302031CE72A7E3010
:1005C4002007F3070318472BEC2A7E302007F30794
:1005D400031C4A2B1830FA07FD0DFC0DF80DF00D25
:1005E400F10DF20DA00D7408F0027508031C750FCF
:1005F400F1027608031C760FF202760DA004201C8B
:10060400052B7D14102B7408F00775080318750F5B
:10061400F10776080318760AF2077D10FA031F30F3
:100624007A05031DEE2A7B1B7D1C372B0310F00D6E
:10063400F10DF20DA00D7408F0027508031C750F7E
:10064400F1027608031C760FF202760D20040139BC
:10065400FD070318FC0A0319F80A031D372BF80CCD
:10066400FC0CFD0CF30A0319472BFA1FF813780846
:10067400F2007C08F1007D08F00000304C2B0130C2
:1006840097224C2B02305B204C2B04303F204C2B08
:0806940008304F2000000800AF
:10069C00200073087706031D602B72087606031D75
:1006AC00602B71087506031D602B70087406031906
:0A06BC0003150800031108000800F0
:1006C60041302200C7000130C800033047078400CC
:1006D6000030483D850000084507F1000030463DE2
:1006E600F2007108C5007208C60080307206F0007C
:1006F60080307002031D812B003071020318882B95
:10070600F001F101F201F301CA2B8030F0008030D4
:1007160046067002031D912B4508FF3C0318B92BB2
:10072600F401F501F601F7014108F0004208F10075
:100736004308F2004408F300E821013003180030B2
:10074600F00070080319B02BFF30F000FF30F10005
:10075600FF30F200FF30F300CA2BFF30F000FF300D
:10076600F1007F30F200FF30F300CA2B0330220085
:10077600470786000030483D87004508810041084C
:10078600F0004208F1004308F2004408F3000800B4
:100796002200C301C401C501C6010030C7000030F4
:1007A600C8000030C9007F30CA00CD30CB00CC3045
:1007B600CC004C30CD007B30CE00CF014108840008
:1007C6004208850000082D3A031DF22B0030C700B1
:1007D6000030C8008030C9007F30CA00CF0A4F08F9
:1007E600410784000030423D85000008003A0319A5
:1007F600DE2C4F08410784000030423D8500303032
:100806000002031C482C4F08410784000030423D7B
:1008160085000008393C031C482C4308F0004408B6
:10082600F1004508F2004608F3000030F4000030FD
:10083600F5002030F6008230F700372270082200DB
:10084600D0007108D1007208D2007308D3004F0897
:10085600410784000030423D85000008D400412154
:10086600EB2022005008F4005108F5005208F6006B
:100876005308F700492170082200C3007108C4001C
:100886007208C5007308C600DB2C4F0841078400B8
:100896000030423D850000082E3A031DC92CCF0AC0
:1008A6004F08410784000030423D85000008003AA9
:1008B6000319C82C4F08410784000030423D8500CB
:1008C60030300002031CB32C4F084107840000306F
:1008D600423D85000008393C031CB32C4F084107F4
:1008E60084000030423D85000008D4004121EB2001
:1008F60022004B08F4004C08F5004D08F6004E089F
:10090600F700372222004308F4004408F5004508A2
:10091600F6004608F700492170082200C300710856
:10092600C4007208C5007308C6004B08F0004C08E6
:10093600F1004D08F2004E08F300CD30F400CC3043
:10094600F5004C30F6007B30F700372270082200A5
:10095600CB007108CC007208CD007308CE00C52C00
:100966004308F0004408F1004508F2004608F30089
:100976004708F4004808F5004908F6004A08F70059
:100986003722EF2C2200CF0A532CDE2C4308F0002E
:100996004408F1004508F2004608F3004708F40051
:1009A6004808F5004908F6004A08F7003722EF2CF8
:1009B6002200CF0AF22B4308F0004408F100450854
:1009C600F2004608F3004708F4004808F500490815
:0A09D600F6004A08F7003722080077
:1009E0002000FB01FA01F9018030F800F10CF00C55
:1009F000031C032D7408F90775080318750FFA070F
:100A00000318FB0A0310F01F0B2D7408FA07750872
:100A10000318750FFB07FB0CFA0CF90CF80C031C00
:100A2000F62C7B08F3007A08F2007908F1007808C8
:040A3000F0000800CA
:100A340023009E181F2D00001A2D220041082300B8
:040A44009A0008000C
:100A48004130F4000130F5000330740784000030B1
:100A5800753D85007E300002F000F1010030F13B69
:100A68002200450886004608870070088100710842
:100A7800413181000330740786000030753D8700DE
:100A88007E3081004108F0004208F1004308F2007E
:060A98004408F300080011
:0A0A9E0020008030F6064921080010
:100AA8007408003A031D612D7508003A031D612D75
:100AB800FF30F0007F30F100B92D2000FD01F90171
:100AC800F801710870040319003471087506FA00FA
:100AD800FA1BFD09FB01F51F762DF409F509F40A47
:100AE8000319F50AF11F7D2DF009F109F00A031920
:100AF800F10A71087504FA00FA1B922D15217B186A
:100B0800A52DFD1F0034F009F109F00A0319F10AB7
:100B1800F809F909F80A0319F90A0034F51FA12D93
:100B2800F11B9D2D7108F9007008F800F101F00122
:100B3800852DF101F001F00A0034F109F009FB0AF2
:100B4800822DF80A0319F90A74087802031D852D05
:100B580075087902031D852DF901F801F00A0319BA
:0C0B6800F10AF11F852D0000FF34080089
:100B74002000FB0173080319F62D7208FA00F2171E
:100B84008E30F302F31FF92DF309F30A08307302D0
:100B9400031CDC2DF300F10D7208F100F2010830A2
:100BA4007302031CDC2DF300F10DF1017308031D26
:100BB4000310E42D73080319E42D0310F20CF10C57
:100BC400F30BDF2D7B1B711CEE2D031CEE2DF10AA4
:100BD4000319F20AF21B052EFA1F082EF209F10975
:100BE400F10A0319F20A082EF201F101082E7B140E
:100BF400FB1F0B2EF201FA1F0B2EFF30F200F10047
:100C0400FA0DF20C0B2E0130FC000D2E0030FC000E
:100C14000D2EFF30FC00FC080319112E0821710869
:080C2400F0007208F100080065
:100C2C0022002408A8002508A9002608AA002708E5
:100C3C00AB002408AC002508AD002608AE00270840
:100C4C00AF002100ED0122002408F4002508F50076
:100C5C002608F6002708F7000030F0000030F100FD
:100C6C000030F2007F30F300E8210130031800302F
:100C7C00F0007008031D5C2E0030F4000030F5000D
:100C8C000030F6007F30F70022002408F000250821
:100C9C00F1002608F2002708F300E82101300318C0
:100CAC000030F0007008031D5C2E632E0D140D1027
:100CBC00F001F101F201F3010F2F01302100ED00E1
:100CCC0050306D020318062F22002408F00025086E
:100CDC00F1002608F2002708F3002408F400250888
:100CEC00F5002608F6002708F700372270082200C6
:100CFC00B6007108B7007208B8007308B90021007B
:100D0C006D082200B400B501B435B50D01303402C4
:100D1C00F0000030353BF100EB2070082200B000F1
:100D2C007108B1007208B2007308B3003608F00005
:100D3C003708F1003808F2003908F3003008F400E5
:100D4C003108F5003208F6003308F700372222008C
:100D5C003008F4003108F5003208F6003308F700CB
:100D6C00372270082200B0007108B1007208B2007E
:100D7C007308B30001303407F0000030353DF1004A
:100D8C003408F4003508F500F024EB207008F4006A
:100D9C007108F5007208F6007308F700220030089D
:100DAC00F0003108F1003208F2003308F3009A2207
:100DBC0022002C08F4002D08F5002E08F6002F0850
:100DCC00F700372270082200AC007108AD007208E1
:100DDC00AE007308AF002808F4002908F5002A08B3
:100DEC00F6002B08F700492170082200A8007108B2
:100DFC00A9007208AA007308AB002100ED0A662E48
:100E0C0022002808F0002908F1002A08F2002B081B
:040E1C00F3000800D7
:100E20002200A40121006D0884006E0885000008DE
:100E3000EF006F08003A03192D2F6F082200C10040
:100E40001A252200A40A240821006D07840000301E
:0C0E50006E3D85000008EF00192F08001F
:100E5C002200B001B101B201B3012408A800250899
:100E6C00A9002608AA002708AB002408AC00250816
:100E7C00AD002608AE002708AF000030B4000030EB
:100E8C00B5000030B6007F30B7002100ED01ED0158
:100E9C0050306D020318DF2F22003008F0003108AB
:100EAC00F1003208F2003308F3002808F400290896
:100EBC00F5002A08F6002B08F700492170082200DB
:100ECC00B0007108B1007208B2007308B3000030B2
:100EDC002406F00000302506F10080302606F200D2
:100EEC0000302706F3002408F4002508F500260836
:100EFC00F6002708F700372222002C08F4002D08F2
:100F0C00F5002E08F6002F08F70037227008220093
:100F1C00B8007108B9007208BA007308BB00380831
:100F2C00AC003908AD003A08AE003B08AF00210018
:100F3C006D08F000F101F035F10D02307007F4008E
:100F4C000030713DF5000330F0070030F13DF02426
:100F5C00EB2022003408F4003508F5003608F600C2
:100F6C003708F700372270082200B4007108B5006A
:100F7C007208B6007308B7007008F4007108F50029
:100F8C007208F6007308F7003808F0003908F10011
:100F9C003A08F2003B08F3009A2270082200A800DD
:100FAC007108A9007208AA007308AB002100ED0AB1
:100FBC004E2F22003008F0003108F1003208F20008
:060FCC003308F3000800E9
:100FD20012001E00F003031DE92FF103031DE92F88
:020FE200080005
:100FE40023001908F1009D1CF92F1D121D1671080C
:040FF400F000080001
:1010000022002408AA002508AB002608AC00270807
:10101000AD002100EF012200B201F401F501F6015B
:10102000F7012A08F0002B08F1002C08F2002D0827
:10103000F3008031E8218831013003180030F000DE
:1010400070080319382800302200AA060030AB06C9
:101050008030AC060030AD0621006F082200280762
:1010600086000030293D87002D3081002100EF0AE5
:1010700022002A08F0002B08F1002C08F2002D08AD
:10108000F3008031BA25883170082100ED00710825
:10109000EE0080307106F20080307202031D52288B
:1010A00064307002031C72286F0822002807B30006
:1010B0000030293DB4006430F4000030F500210018
:1010C0006D08F0006E08F100803154258831303011
:1010D000F00722003308860034088700700881007A
:1010E0002100EF0A80306E06F00080307002031D90
:1010F0007B280A306D02031CA6286F0822002807EF
:10110000B3000030293DB4000A30F4000030F5008F
:1011100021006D08F0006E08F100803154258831FF
:101120000A30F4000030F500803154258831780809
:10113000F0007908F1003030F00722003308860013
:1011400034088700700881002100EF0A6F08220030
:101150002807B3000030293DB4000A30F400003005
:10116000F50021006D08F0006E08F1008031542573
:1011700088317808F0007908F1003030F00722005B
:101180003308860034088700700881002100EF0AC8
:101190006F082200280786000030293D87002E3086
:1011A00081002100EF0A6D08F0006E08F100803127
:1011B000EB2088317008F4007108F5007208F60021
:1011C0007308F70022002A08F0002B08F1002C0811
:1011D000F2002D08F30080314F258831700822007D
:1011E000AE007108AF007208B0007308B10006309D
:1011F0003202031852292E08F0002F08F10030089F
:10120000F2003108F3000030F4000030F500203027
:10121000F6008230F70080313722883170082200D2
:10122000AE007108AF007208B0007308B1008031E1
:10123000BA25883170082100ED007108EE006F08B2
:101240002200280786000030293D87003030F00753
:10125000700881002100EF0A6D08F0006E08F100AF
:101260008031EB2088317008F4007108F5007208B5
:10127000F6007308F70022002E08F0002F08F10096
:101280003008F2003108F30080314F2588317008B2
:101290002200AE007108AF007208B0007308B10000
:1012A000B20AF72821006F082200280786000030C4
:0812B000293D870081010800BF
:1012B80022002408F4002508F5002608F60027086F
:1012C800F700F001F101F201F3018031E8218831E2
:1012D8000130031C0030F000700803197829F00170
:1012E800F101F201F3018D2A22002408A800250843
:1012F800A9002608AA002708AB000030F400003037
:10130800F5000030F6007F30F7002408F0002508CB
:10131800F1002608F2002708F3008031E82188311F
:10132800013003180030F00070080319B8292200B2
:101338002808F4002908F5002A08F6002B08F70009
:101348000030F0000030F1000030F2007F30F30090
:1013580080319A22883170082200A8007108A900FB
:101368007208AA007308AB0022002808C1002908E7
:10137800C2002A08C3002B08C400EE30C5000030A4
:10138800C6008031242588317008A8007108A9009A
:101398007208AA007308AB007008C1007108C20087
:1013A8007208C3007308C40021006E082200C5003B
:1013B80021006F082200C600C637C50CC61FE929E0
:1013C800031CE929C50A0319C60A80316323883139
:1013D80070082200A8007108A9007208AA00730802
:1013E800AB000030F4000030F5000030F6007F302C
:1013F800F7002408F0002508F1002608F200270865
:10140800F3008031E8218831013003180030F00002
:10141800700803192C2A22002808F4002908F5006E
:101428002A08F6002B08F7000030F0000030F10021
:101438000030F2007F30F30080319A228831700842
:101448002200A8007108A9007208AA007308AB005E
:1014580014302100ED0022002808F4002908F500C6
:101468002A08F6002B08F7002408F0002508F100E8
:101478002608F2002708F30080319A2288312200DA
:101488002808F4002908F5002A08F6002B08F700B8
:101498008031492188310030F4000030F5000030F7
:1014A800F6008030F70080319A22883170082200D7
:1014B800AC007108AD007208AE007308AF002808D0
:1014C800F4002908F5002A08F6002B08F7008031F7
:1014D8004E2388310130031D0030F00070080319D5
:1014E800762A842A22002C08A8002D08A9002E0894
:1014F800AA002F08AB002100ED036D08031D2F2A59
:1015080022002808F0002908F1002A08F2002B0818
:04151800F3000800D4
:10151C0021006D0884006E0885000008243A031D24
:10152C00CC2A01306D07840000306E3D8500000828
:10153C00473A031DCC2A02306D07840000306E3D03
:10154C0085000008503A031DCC2A03306D07840037
:10155C0000306E3D85000008473A031DCC2A04304C
:10156C006D07840000306E3D85000008473A031D6E
:10157C00CC2A05306D07840000306E3D85000008D4
:10158C00413A031DCC2A0130F000CD2AF0010800AD
:10159C0007302200BC003C0821006D07840000309D
:1015AC006E3D850000082C3A0319DF2A2200BC0A84
:1015BC00D12A2200BC0A3C0821006D0784000030AF
:1015CC006E3D850000082C3A031DEE2AF001422CDA
:1015DC00EF0122003C0821006D07840000306E3DB5
:1015EC00850000082C3A03191A2B24308600013090
:1015FC0087006F0886070318870A22003C08210021
:10160C006D07840000306E3D850000088100EF0AF4
:10161C0024308600013087006F0886070318870A7C
:10162C0081012200BC0AEF2A22002630C1000130C1
:10163C00C2008031CB23883170082200B8007108B9
:10164C00B9007208BA007308BB00A6012430C100AF
:10165C000130C2008031CB23883170082200BD00DC
:10166C007108BE007208BF007308C0000030F4009F
:10167C000030F5007030F6008430F7003808F000C8
:10168C003908F1003A08F2003B08F30080319A2245
:10169C00883122003D08F4003E08F5003F08F600B2
:1016AC004008F7008031492188317008A800710882
:1016BC00A9007208AA007308AB002200BC0A3C08FF
:1016CC0021006D07840000306E3D85000008533A00
:1016DC00031D792B00302000A8060030A9068030AD
:1016EC00AA060030AB0620002808F0002908F100FB
:1016FC002A08F2002B08F3003530F400FA30F5001C
:10170C000E30F6007930F7008031372288317008BE
:10171C00AC007108AD007208AE007308AF00220077
:10172C00BC0ABC0A2100EF0122003C0821006D0715
:10173C00840000306E3D850000082C3A0319C52B3F
:10174C0024308600013087006F0886070318870A4B
:10175C0022003C0821006D07840000306E3D85009E
:10176C0000088100EF0A24308600013087006F08E2
:10177C0086070318870A81012200BC0A9A2B2200D3
:10178C002730C1000130C2008031CB238831700872
:10179C002200B8007108B9007208BA007308BB00C7
:1017AC00A7012430C1000130C2008031CB23883125
:1017BC0070082200BD007108BE007208BF007308DB
:1017CC00C0000030F4000030F5007030F6008430BA
:1017DC00F7003808F0003908F1003A08F2003B082D
:1017EC00F30080319A22883122003D08F4003E0833
:1017FC00F5003F08F6004008F70080314921883198
:10180C007008B0007108B1007208B2007308B30020
:10181C002200BC0A3C0821006D07840000306E3D9C
:10182C0085000008573A031D242C00302000B00618
:10183C000030B1068030B2060030B306200030080C
:10184C00F0003108F1003208F2003308F3003530B3
:10185C00F400FA30F5000E30F6007930F7008031E4
:10186C00372288317008A3007108A4007208A50003
:0A187C007308A6000130F000080018
:101886001A302100D2000530D3004130D400013097
:10189600D500F230D6000730D7000030D80000302F
:1018A600D900FF30DA00FF30DB000030DC0000300A
:1018B600DD00FF30CD00FF30CE000030CF0000301D
:1018C600D00023009E1690309D0021008D140D112E
:1018D6002000911E722C23001908F0006B2C0800C2
:1018E6002000A301A401A501A601A701A801A90141
:1018F600AA01AB01AC01AD01AE01AF01B001B1016E
:10190600B201B301B401B501B601B701B801F030B7
:10191600210099008C018D0123008C018D0121008D
:101926008D1491160B178B1723009F1540309B00C3
:1019360003309C001E154324200027080319672E38
:1019460019302100ED002030EE008E2270080319B8
:10195600652E1930ED002030EE00CE2270080319F6
:10196600652E3430F4002230F5007F30F6007B30EF
:10197600F70020002C08F0002D08F1002E08F200D8
:101986002F08F30080314F2588310030F4000030F5
:10199600F5000030F6008030F70080319A22883159
:1019A60070082200A4007108A5007208A60073083A
:1019B600A70080312E27883170082000B4007108F6
:1019C600B5007208B6007308B7007008F400710815
:1019D600F5007208F6007308F70080313722883167
:1019E6007008B4007108B5007208B6007308B70035
:1019F600FB302200A4000130A5005930A6007F303C
:101A0600A70080312E2788317008A0007108A10038
:101A16007208A2007308A30020002C08F0002D080D
:101A2600F1002E08F2002F08F300D830F4000F3032
:101A3600F5004930F6007F30F700803149218831C2
:101A460070082200A4007108A5007208A600730899
:101A5600A70080312E2788312008F4002108F500E0
:101A66002208F6002308F7008031372288317008F3
:101A76002200A0007108A1007208A2007308A3004A
:101A86003D30F4005A30F500A330F6007F30F70001
:101A960020002308F0002408F1002508F20026089B
:101AA600F30080314F2588310030F4000030F50016
:101AB6000030F6008030F70080319A2288317008B5
:101AC6002200A4007108A5007208A6007308A700EA
:101AD60080312E2788312008F4002108F5002208DD
:101AE600F6002308F700803137228831700822007B
:101AF600A0007108A1007208A2007308A3003D307F
:101B0600F4005A30F500A330F6007F30F7002000CD
:101B16002308F0002408F1002508F2002608F30047
:101B260080314F2588310030F4000030F500003058
:101B3600F6008030F70080319A2288317008220042
:101B4600A4007108A5007208A6007308A7008031DA
:101B56002E2788312008F4002108F5002208F60017
:101B66002308F7008031372288313408F40035081D
:101B7600F5003608F6003708F7008031492188312C
:101B86007008B4007108B5007208B6007308B70093
:101B960070082200A4007108A5007208A600730848
:101BA600A7005C2170082000B4007108B500720817
:101BB600B6007308B70070082200A4007108A500DB
:101BC6007208A6007308A7008031162688311930DE
:101BD600F4005130F5004730F6008C30F7008031C4
:101BE600372288317008B4007108B5007208B60053
:101BF6007308B70028082200A40020002908220044
:101C0600A50020002A082200A60020002B0822009A
:101C1600A700DE30A8000030A9000020DE30210039
:101C2600ED000030EE008031102788310D302200A3
:101C3600C10080311A258831200030082200A40016
:101C4600200031082200A500200032082200A6004C
:101C5600200033082200A700DE30A8000030A900CB
:101C66000020DE302100ED000030EE00803110272C
:101C760088310D302200C10080311A2588312000BC
:101C860034082200A400200035082200A500200008
:101C960036082200A600200037082200A700DE3002
:101CA600A8000030A9000020DE302100ED00003041
:101CB600EE008031102788310D302200C1008031BE
:0C1CC6001A2588312000A7019F2C682EF1
:020000040001F9
:04000E00843F131701
:00000001FF
