:0400000088317D2D99
:1000080070082000A2007108A1008031911E3B28D1
:1000180088317325803170082200D20031280130E0
:100028002100A000B4013B283B2821006A30F000E1
:100038002030F1003408700786000030713D8700D9
:100048002200520881002100B40A34087007860093
:100058000030713D870081013B28220052080D3A8B
:100068000319132852080A3A0319182819282000D6
:0A0078002208F0002108F100090041
:08008200FA1FF2130030080020
:10008A00FB14FB1F4F28FF30F300F200F100F000D1
:08009A00FA0DF20CFF30080022
:1000A2007B15FB1F5B280130F300F201F101F00127
:0800B200FA0DF20CFF3008000A
:0E00BA00F201F101F001F801F301003008003D
:1000C800A0017208031D79287108F2007008F10078
:1000D800F001A0157208031D79287108F200F101DA
:1000E800A01120167208031987282008F302031D9F
:1000F800031C8B280310F21B8F28F00DF10DF20D55
:10010800F30B7F288B280130FC005D2092280230F9
:0E011800FC00512092280430FC004120080019
:100126007C18C928FC189A287C19E8289328A0016D
:100136007208031DBA287108F2007008F1007808E9
:10014600F000F801A0157208031DBA287108F20024
:100156007008F100F001A01120167208031DBA28DC
:100166007108F200F101A01572080319DC282008B5
:10017600F302031D031CE0280310F21BC928F80D27
:10018600F00DF10DF20DF30BC028E0287B1B701C5F
:10019600E428F81FE428F00A0319F10A0319F20A01
:1001A600031DE428F20CF10CF00CF30A0319E828FD
:1001B600E4280130FC005D20EB280230FC005120D1
:1001C600EB280430FC004120EB280830FC004520D9
:0401D600000008001D
:1001DA00200072087606A000F801F9017308770278
:1001EA00031C0F297708FD007308F7007D08F30048
:1001FA007608FD007208F6007D08F2007508FD0019
:10020A007108F5007D08F1007408FD007008F4001B
:10021A007D08F0007708031988297208FA00F21796
:10022A00F61777087302F700031942290830770294
:10023A00031C3829F7007408F9007508F4007608D9
:10024A00F500F60108307702031C3829F700740814
:10025A00F9007508F400F50108307702031C382903
:10026A007A08F20088297708031942290310F60C44
:10027A00F50CF40CF90CF70B3B29A01F4F29F909CF
:10028A00F409F509F609F90A0319F40A0319F50A32
:10029A000319F60A7908F80774080318740FF007A7
:1002AA0075080318750FF10776080318760FF20719
:1002BA00A01B6829031C7829F20CF10CF00CF80C2D
:1002CA00F30F7829842903187C29F809F009F10920
:1002DA00F209F80A0319F00A0319F10A0319F20AD2
:1002EA008030FA0680290130FC0093208A290230E6
:1002FA00FC0093208A290430FC0064208A290830F3
:0E030A00FC0045208A290030FC00000008009D
:100318007B14FB1F9729F201FA1FFF30F200F1004E
:0A032800F000FA0DF20CFF3008009F
:0A03320020008030F606ED200800E0
:06033C00FB15FF30080074
:100342002000FB017308031D77080319F7297208BF
:100352007606FA007708F3077E30031CB429F3020D
:100362000318FA29B729F302031CFD297208F800C1
:100372007108FC007008FD00F817F6170310F2016F
:10038200F101F0011830A0007D1CD1297408F0079A
:1003920075080318750FF10776080318760FF20730
:1003A200F20CF10CF00CF80CFC0CFD0C0310A00B81
:1003B200C529F21BE129F80DF00DF10DF20DF30341
:1003C2007B1B701CF329F81FF329F00A0319F10AA9
:1003D2000319F20A031DF329F20CF10CF00CF30AD3
:1003E2000319FA29FA1FF2130030FF2901305D20A8
:1003F200FF2902304520FF29043051200000080067
:100402002000FB01FC01F80173080319782A720825
:10041200FA00F2179E30F302F31F682AF309F30A77
:1004220008307302031C3D2AF300F80D7008F8002F
:100432007108F0007208F100F20108307302031C27
:100442003D2AF300F80D7008F8007108F000F10180
:1004520008307302031C3D2AF300F80D7008F800FF
:10046200F00108307302031C3D2AF300F80DF80175
:100472007308031D0310472A73080319472A031040
:10048200F20CF10CF00CF80CF30B402A7B1B781CDD
:10049200552A031C552AF80A0319F00A0319F10A0E
:1004A2000319F20AF21B752AFA1F782AF209F109D6
:1004B200F009F809F80A0319F00A0319F10A0319F5
:1004C200F20A782AF201F101F001F801782A7B148C
:1004D200FB1F7B2AF201FA1F7B2AF200F100F000D7
:1004E200F800FA0DF20C7B2A0130FC007D2A003064
:1004F200FC007D2AFF30FC00FC080319812A8C21B4
:100502007208F3007108F2007008F1007808F00038
:020512000800DF
:100514002000FA017308031D7A147708031DFA14E6
:100524007A080319D52A033A0319A02A7A189D2AAE
:10053400F61FD32AD12AF21FD12AD32A720880396E
:10054400FA00F21376088039F6137A060319AE2AF4
:100554007A080319D12AD32A770873020319B52A12
:10056400031CC92ACD2A760872020319BC2A031C6B
:10057400C92ACD2A750871020319C32A031CC92A82
:10058400CD2A740870020319D52A0318CD2AFA0853
:100594000319D32AD12AFA080319D12AD32A031416
:0E05A4000800031008000314031508000800E7
:1005B20020007008F8007108F0007208F10073085A
:1005C200F200F301FB01FC019E30F300FA01F21F7D
:1005D200F62AF809F009F109F209F80A0319F00AF2
:1005E2000319F10A0319F20AFA170230FC009320E8
:0205F2000800FF
:1005F4007408003A031D132B7508003A031D132BCE
:100604007608003A031D132B7708003A031D132BB9
:10061400FF30F000FF30F1007F30F200FF30F300D4
:10062400AD2B200077080319A12B73080319A42B01
:10063400720876068039FA00F217F617A0017208DC
:10064400F8007108FC007008FD007408FD027508CC
:10065400031C750FFC027608031C760FF802F801E0
:10066400FC01FD01031C3D2B0310F20CF10CF00CFA
:10067400F80C0130A0007708F302031C472B7E30EE
:100684002007F3070318A72B4C2B7E302007F30712
:10069400031CAA2B1830FA07FD0DFC0DF80DF00D04
:1006A400F10DF20DA00D7408F0027508031C750F0E
:1006B400F1027608031C760FF202760DA004201CCA
:1006C400652B7D14702B7408F00775080318750FDB
:1006D400F10776080318760AF2077D10FA031F3033
:1006E4007A05031D4E2B7B1B7D1C972B0310F00DED
:1006F400F10DF20DA00D7408F0027508031C750FBE
:10070400F1027608031C760FF202760D20040139FB
:10071400FD070318FC0A0319F80A031D972BF80CAC
:10072400FC0CFD0CF30A0319A72BFA1FF813780825
:10073400F2007C08F1007D08F0000030AC2B0130A1
:100744009E21AC2B02305D20AC2B04304520AC2B19
:080754000830512000000800EC
:10075C0023006408F0006508F100F035F10DF03568
:10076C00F10D7008620784007108633D8500000874
:10077C00E60001310008E70001310008E800013112
:10078C000008E900640865040319062C5E08F000F3
:10079C005F08F1006008F2006108F3006608F400DD
:1007AC006708F5006808F6006908F700A121013018
:1007BC002300E4020030E53B6408F4006508F50012
:1007CC00F435F50DF435F50D7408620784007508E1
:1007DC00633D85000008F40001310008F50001318B
:1007EC000008F60001310008F700ED207008230026
:1007FC00E6007108E7007208E8007308E900C82BEE
:10080C006608F0006708F1006808F2006908F30058
:02081C000800D2
:10081E0023006108F000F101F201F301FF30F00551
:10082E000030F1057008E6007108E7007F307002B5
:10083E00F2000030713BF3007208E6007308E70027
:10084E0080307306F00080307002031D302C0030B3
:10085E0072020318542CF401F501F601F7015E083B
:10086E00F0005F08F1006008F2006108F3008A22D0
:10087E00013003180030F000700803194F2C0030BF
:10088E00F0000030F1008030F2007F30F300AD2C2C
:10089E00F001F101F201F301AD2C23006708003CD9
:1008AE00031D5B2C6608183C0318662C5E08F000CE
:1008BE005F08F1006008F2006108F300AD2C5E08DD
:1008CE00F0005F08F1006008F2006108F3000122F9
:1008DE00D92270082300E2007108E3007208E400D8
:1008EE007308E5007008F4007108F5007208F60050
:1008FE007308F7005E08F0005F08F1006008F20070
:10090E006108F3008A22013003180030F0007008ED
:10091E000319A42C0030F4000030F5000030F6006E
:10092E007F30F70023006208F0006308F1006408CE
:10093E00F2006508F3009921AD2C23006208F00047
:0E094E006308F1006408F2006508F300080079
:10095C00710DF80DF90D7408F8027508031C750F6C
:10096C00F902F00DF10D0F30FC00710DF80DF90DC1
:10097C007408701CC72CF8027508031C750FF9025B
:10098C00CC2CF80775080318750FF907F00DF10D4D
:10099C00FC0BBB2C7018D82C7408F80775080318BE
:0809AC00750FF90700000800B7
:1009B400303023005502F000F1010030F13B080013
:1009C4002300DD01F401F501F601F7015508F000FB
:1009D4005608F1005708F2005808F3008A22013043
:1009E40003180030F00070080319032D00302300B1
:1009F400D5060030D6068030D7060030D806013040
:100A0400DD0023005508F0005608F1005708F200F5
:100A14005808F3008330F400F930F5002230F60072
:100A24007C30F700A12170082300D5007108D6009E
:100A34007208D7007308D8007008DE007108DF0060
:100A44007208E0007308E1000F247008F4007108D4
:100A5400F5007208F6007308F70023005508F0004B
:100A64005608F1005708F2005808F30099210030A5
:100A7400F4000030F5000030F6008130F700A121C9
:100A840070082300D5007108D6007208D7007308D7
:100A9400D8007008F4007108F5007208F6007308B5
:100AA400F7000030F0000030F1000030F200803038
:100AB400F3008A22013003180030F0007008031993
:100AC400832D0030F4000030F5000030F600803053
:100AD400F70023005508F0005608F1005708F2000B
:100AE4005808F300992170082300D5007108D60036
:100AF4007208D7007308D8005D080130031D003068
:100B0400DD0023005508F4005608F5005708F600E8
:100B14005808F7000030F0000030F1000030F20017
:100B24007F30F3008A22013003180030F00070088F
:100B34000319B72D23005508F4005608F50057088B
:100B4400F6005808F7000030F0000030F1000030E3
:100B5400F2008030F300992170082300D500710859
:100B6400D6007208D7007308D80023005508F00097
:100B74005608F1005708F2005808F3005508F4002D
:100B84005608F5005708F6005808F700A121700828
:100B94002300D9007108DA007208DB007308DC0056
:100BA4007008DE007108DF007208E0007308E100DD
:100BB4009D30E2008F30E3000430E4000030E500B3
:100BC400AE235508F4005608F5005708F6005808F7
:100BD400F700A12170082300D5007108D60072081F
:100BE400D7007308D8005908DE005A08DF005B08F4
:100BF400E0005C08E100B130E2008F30E300033034
:100C0400E4000030E500AE237008F4007108F5003C
:100C14007208F6007308F7005508F0005608F10052
:100C24005708F2005808F300FA2270082300D50090
:100C34007108D6007208D7007308D8005D0803193C
:100C4400302E00305506F00000305606F10080309A
:100C54005706F20000305806F300382E5508F0000D
:0E0C64005608F1005708F2005808F300080087
:100C720020007008F8007108F000F101F201F301A0
:100C8200FB01FC019630F300FA01F01F4E2EF80929
:100C9200F009F80A0319F00AFA177008F100780847
:0A0CA200F000F801F20164200800E0
:100CAC0023009E185B2E0000562E55089A00080053
:100CBC002300C50142088400430885000008C400D5
:100CCC004408003A0319772E4408D5005626C50A65
:100CDC004508420784000030433D85000008C400ED
:040CEC00662E080068
:100CF0002300C401C501C601C7010030C80000308F
:100D0000C9000030CA007F30CB00CD30CC00CC30E1
:100D1000CD004C30CE007B30CF00D00142088400A3
:100D20004308850000082D3A031D9F2E0030C8009F
:100D30000030C9008030CA007F30CB00D00A500894
:100D4000420784000030433D85000008003A031943
:100D50008B2F5008420784000030433D850030301F
:100D60000002031CF52E5008420784000030433D6A
:100D700085000008393C031CF52E4408F0004508A6
:100D8000F1004608F2004708F3000030F40000309C
:100D9000F5002030F6008230F700A1217008230012
:100DA000D1007108D2007208D3007308D400500833
:100DB000420784000030433D85000008D500DA2456
:100DC000392623005108F4005208F5005308F600B4
:100DD0005408F700ED2070082300C4007108C50016
:100DE0007208C6007308C700882F500842078400A5
:100DF0000030433D850000082E3A031D762FD00AAF
:100E00005008420784000030433D85000008003A46
:100E10000319752F5008420784000030433D8500B8
:100E200030300002031C602F50084207840000305D
:100E3000433D85000008393C031C602F50084207E1
:100E400084000030433D85000008D500DA243926AF
:100E500023004C08F4004D08F5004E08F6004F083A
:100E6000F700A12123004408F4004508F5004608D6
:100E7000F6004708F700ED2070082300C400710851
:100E8000C5007208C6007308C7004C08F0004D0882
:100E9000F1004E08F2004F08F300CD30F400CC30E2
:100EA000F5004C30F6007B30F700A12170082300DC
:100EB000CC007108CD007208CE007308CF00722FED
:100EC0004408F0004508F1004608F2004708F30026
:100ED0004808F4004908F5004A08F6004B08F700F6
:100EE000A1219C2F2300D00A002F8B2F4408F00053
:100EF0004508F1004608F2004708F3004808F400EE
:100F00004908F5004A08F6004B08F700A1219C2F7C
:100F10002300D00A9F2E4408F0004508F10046083F
:100F2000F2004708F3004808F4004908F5004A08B1
:0A0F3000F6004B08F700A1210800AD
:100F3A0023004208F4004308F5004408F600450877
:100F4A00F700DB30F0000F30F1004930F20080305A
:100F5A00F3008A22013003180030F00070080319E8
:100F6A00D32FE430F400CB30F5001630F600813090
:100F7A00F70023004208F0004308F1004408F20099
:100F8A004508F300992170082300D5007108D6009E
:100F9A007208D7007308D800E224EF2F2300420812
:100FAA00F0004308F1004408F2004508F300DB3082
:100FBA00F4000F30F5004930F6007F30F700ED20DD
:100FCA0070082300D5007108D6007208D70073088C
:060FDA00D800E22408002B
:100FE00012001E00F003031DF02FF103031DF02F6C
:020FF0000800F7
:101000007408003A031D0D287508003A031D0D28C9
:10101000FF30F0007F30F10067282000FD01F9016A
:10102000F801710870040319003471087506FA009C
:10103000FA1BFD09FB01F51F2228F409F509F40A42
:101040000319F50AF11F2928F009F109F00A03191B
:10105000F10A71087504FA00FA1B3E288031AE24AB
:1010600088317B185328FD1F0034F009F109F00A7C
:101070000319F10AF809F909F80A0319F90A003401
:10108000F51F4F28F11B4B287108F9007008F80074
:10109000F101F0013328F101F001F00A0034F10907
:1010A000F009FB0A3028F80A0319F90A74087802D3
:1010B000031D332875087902031D3328F901F8014F
:1010C000F00A0319F10AF11F33280000FF34080069
:1010D000F401F501F601F70123004208F00043088E
:1010E000F1004408F2004508F30080318A2288317B
:1010F000013003180030F000700803198D2800300B
:1011000023004206F00000304306F1008030440620
:10111000F20000304506F300962823004208F00054
:0E1120004308F1004408F2004508F3000800FF
:10112E002000FB0173080319D3287208FA00F21786
:10113E008E30F302F31FD628F309F30A0830730238
:10114E00031CB928F300F10D7208F100F20108300A
:10115E007302031CB928F300F10DF1017308031D8E
:10116E000310C12873080319C1280310F20CF10CE7
:10117E00F30BBC287B1B711CCB28031CCB28F10A5C
:10118E000319F20AF21BE228FA1FE528F209F10907
:10119E00F10A0319F20AE528F201F101E5287B14A0
:1011AE00FB1FE828F201FA1FE828FF30F200F100D9
:1011BE00FA0DF20CE8280130FC00EA280030FC00A1
:1011CE00EA28FF30FC00FC080319F02880318C213E
:0C11DE0088317108F0007208F100080070
:1011EA0023002408C2002508C30080315E26883106
:1011FA002608C2002708C30080315E268831A9303C
:10120A00C2000030C30080315E268831AB30C20094
:0C121A000030C30080315E2688310800DF
:1012260023002408AA002508AB002608AC002708DE
:10123600AD00B201B301F401F501F601F7012A0888
:10124600F0002B08F1002C08F2002D08F300803185
:101256008A228831013003180030F0007008031923
:10126600462900302300AA060030AB068030AC06C3
:101276000030AD063208280786000030293D870079
:101286002D308100B20A23002A08F0002B08F10055
:101296002C08F2002D08F300972070082200EE00BB
:1012A6007108EF0080307106F20080307202031D73
:1012B6005E2964307002031C7B292300320828074C
:1012C600B4000030293DB5006430F4000030F5006C
:1012D60022006E08F0006F08F10000203030F007A1
:1012E6002300340886003508870070088100B20A9A
:1012F600803022006F06F00080307002031D8529C1
:101306000A306E02031CAB29230032082807B400FA
:101316000030293DB5000A30F4000030F500220007
:101326006E08F0006F08F10000200A30F40000306B
:10133600F50000207808F0007908F1003030F00759
:101346002300340886003508870070088100B20A39
:10135600230032082807B4000030293DB5000A30C2
:10136600F4000030F50022006E08F0006F08F1006E
:1013760000207808F0007908F1003030F0072300EB
:10138600340886003508870070088100B20A3208E2
:10139600280786000030293D87002E308100B20ADA
:1013A60022006E08F0006F08F1008031392688317E
:1013B6007008F4007108F5007208F6007308F7006B
:1013C60023002A08F0002B08F1002C08F2002D0853
:1013D600F30080319921883170082300AE0071082E
:1013E600AF007208B0007308B1000830330203186A
:1013F600512A2E08F0002F08F1003008F2003108BB
:10140600F3000030F4000030F5002030F6008230A2
:10141600F7008031A121883170082300AE007108E1
:10142600AF007208B0007308B10097207008220060
:10143600EE007108EF00230032082807860000300E
:10144600293D87003030F00770088100B20A22007B
:101456006E08F0006F08F100803139268831700877
:10146600F4007108F5007208F6007308F70023000F
:101476002E08F0002F08F1003008F2003108F300C2
:1014860080319921883170082300AE007108AF00C1
:101496007208B0007308B100B30AF82932082807A9
:0C14A60086000030293D8700810108000D
:1014B20023002408A8002508A9002608AA00270856
:1014C200AB002408F0002508F1002608F2002708E6
:1014D200F3000030F4000030F5000030F6007F30F9
:1014E200F7008031ED2088310030F4000030F50043
:1014F2000030F6008030F7008031FA22883170081F
:101502002300AC007108AD007208AE007308AF0092
:101512002808F4002908F5002A08F6002B08F7002D
:101522002C08F0002D08F1002E08F2002F08F3001D
:1015320080319921883170082300C2007108C300EC
:101542007208C4007308C50068207008F4007108AE
:10155200F5007208F6007308F7007730F000CC301F
:10156200F1002B30F2006430F30080318A2288319E
:10157200013003180030F00070080319FD2A23001F
:101582002C08A8002D08A9002E08AA002F08AB00DD
:101592002C08F4002D08F5002E08F6002F08F7009D
:1015A2002408F0002508F1002608F2002708F300BD
:1015B2008031FA22883123002C08F4002D08F5002E
:1015C2002E08F6002F08F7008031ED208831003018
:1015D200F4000030F5000030F6008030F700803172
:1015E200FA22883170082300AC007108AD0072083D
:1015F200AE007308AF00892A23002C08F0002D08E2
:0C160200F1002E08F2002F08F300080091
:10160E002300A801A901AA01AB01AC01AD01AE01F5
:10161E00AF012808D5002908D6002A08D7002B08C4
:10162E00D8008031E22488312408F4002508F50022
:10163E002608F6002708F7008031992188317008B6
:10164E002300AC007108AD007208AE007308AF0045
:10165E007008C2007108C3007208C4007308C50088
:10166E0068207730F400CC30F5002B30F600643073
:10167E00F70080318A228831013003180030F000E3
:10168E0070080319542B23002808F0002908F100D4
:10169E002A08F2002B08F300912B23002808C20021
:1016AE002908C3002A08C4002B08C50080319D27D5
:1016BE0088317008F4007108F5007208F60073089E
:1016CE00F7002C08F0002D08F1002E08F2002F086C
:1016DE00F3008031FA2288317008F4007108F500A9
:1016EE007208F6007308F70023002808F000290896
:1016FE00F1002A08F2002B08F3008031992188317D
:10170E0070082300A8007108A9007208AA007308C7
:06171E00AB00102B0800D7
:1017240022006E0884006F0885000008243A031D17
:10173400412D01306E07840000306F3D85000008A4
:10174400473A031D412D02306E07840000306F3D7F
:1017540085000008503A031D412D03306E078400B4
:1017640000306F3D85000008473A031D412D0430C9
:101774006E07840000306F3D85000008473A031D62
:10178400412D05306E07840000306F3D8500000850
:10179400413A031D412D07302300BD003D082200BE
:1017A4006E07840000306F3D850000082C3A031951
:1017B400DE2B2300BD0AD02B2300BD0A3D082200E6
:1017C4006E07840000306F3D850000082C3A031D2D
:1017D400ED2BF001422D2300BC013D0822006E07D1
:1017E400840000306F3D850000082C3A0319192C41
:1017F400A43086000130870023003C0886070318C4
:10180400870A3D0822006E07840000306F3D850082
:10181400000881002300BC0AA43086000130870040
:101824003C0886070318870A8101BD0AEF2B2300B1
:10183400A630C2000130C300803178268831700898
:101844002300B8007108B9007208BA007308BB001D
:10185400A601A430C2000130C3008031782688314B
:1018640070082300BE007108BF007208C00073082E
:10187400C1000030F4000030F5007030F600843010
:10188400F7003808F0003908F1003A08F2003B0884
:10189400F3008031FA22883123003E08F4003F0827
:1018A400F5004008F6004108F7008031ED2088314A
:1018B4007008B4007108B5007208B6007308B70068
:1018C4002300BD0A3D0822006E07840000306F3DEE
:1018D40085000008533A031D782C00302000B4061C
:1018E4000030B5068030B6060030B7062000340854
:1018F400F0003508F1003608F2003708F3003530FF
:10190400F400FA30F5000E30F6007930F70080313B
:10191400A121883170082100A1007108A200720879
:10192400A3007308A4002300BD0ABD0ABC013D083E
:1019340022006E07840000306F3D850000082C3AB9
:101944000319C32CA43086000130870023003C080F
:1019540086070318870A3D0822006E0784000030BA
:101964006F3D8500000881002300BC0AA430860076
:10197400013087003C0886070318870A8101BD0AE5
:10198400992C2300A730C2000130C300803178268F
:10199400883170082300B8007108B9007208BA00D1
:1019A4007308BB00A701A430C2000130C30080311A
:1019B4007826883170082300BE007108BF007208C1
:1019C400C0007308C1000030F4000030F50070302E
:1019D400F6008430F7003808F0003908F1003A08BE
:1019E400F2003B08F3008031FA22883123003E08DC
:1019F400F4003F08F5004008F6004108F700803184
:101A0400ED2088317008BC007108BD007208BE006A
:101A14007308BF002300BD0A3D0822006E0784003E
:101A240000306F3D85000008573A031D222D003019
:101A34002000BC060030BD068030BE060030BF0664
:101A440020003C08F0003D08F1003E08F2003F0889
:101A5400F3003530F400FA30F5000E30F60079303A
:101A6400F7008031A12188317008B8007108B900ED
:101A74007208BA007308BB000130F000422DF00177
:021A8400080058
:101A860056302200D7000630D800D530D9000130B4
:101A9600DA007330DB000D30DC000030DD00003092
:101AA600DE00FF30D300FF30D4000030D500003018
:101AB600D600FF30CE00FF30CF000030D00000301F
:101AC600D10023009E1690309D0021008D140D112B
:101AD6002000911E722D23001908F0006B2D0800BE
:101AE60023001908F1009D1C7A2D1D121D16710880
:041AF600F0000800F4
:101AFA00C227F030210099008D0123008D012100B9
:101B0A008D1491160B178B1723009F1540309B00DD
:101B1A0003309C001E154325210020080319312F8C
:101B2A006A302200EE002030EF0092237008031979
:101B3A002F2F3430F4002230F5007F30F6007B304E
:101B4A00F70021002108F0002208F1002308F20022
:101B5A002408F3008031992188310030F4000030E4
:101B6A00F5000030F6008030F7008031FA22883123
:101B7A0070082300D5007108D6007208D7007308D0
:101B8A00D8008031E224883170082000EC00710806
:101B9A00ED007208EE007308EF007008F400710897
:101BAA00F5007208F6007308F7008031A121883128
:101BBA007008EC007108ED007208EE007308EF007F
:101BCA003D30F4005A30F500A330F6007F30F700BC
:101BDA003808F0003908F1003A08F2003B08F3002F
:101BEA008031992188310030F4000030F50000304E
:101BFA00F6008030F7008031FA228831700823001D
:101C0A00D5007108D6007208D7007308D800803151
:101C1A00E224883170082100A5007108A600720824
:101C2A00A7007308A8007008F4007108F50072088C
:101C3A00F6007308F7008031A1218831700821006D
:101C4A00A5007108A6007208A7007308A80034301E
:101C5A002300C2002230C3007F30C4007B30C5009D
:101C6A0080319D2788317008A0007108A100720890
:101C7A00A2007308A300210021082300C20021004A
:101C8A0022082300C300210023082300C4002100E6
:101C9A0024082300C50080319D2788312008F400DC
:101CAA002108F5002208F6002308F7008031A12157
:101CBA00883121002508F4002608F5002708F600D7
:101CCA002808F7008031A12188316C08F4006D08DA
:101CDA00F5006E08F6006F08F7008031ED208831B4
:101CEA007008EC007108ED007208EE007308EF004E
:101CFA0070082300A4007108A5007208A6007308E2
:101D0A00A70059227008A4007108A5007208A6004D
:101D1A007308A70007231930F4005130F500473043
:101D2A00F6008C30F7008031A12188317008EC0070
:101D3A007108ED007208EE007308EF003408230002
:101D4A00A400200035082300A5002000360823003F
:101D5A00A600200037082300A7005F30A800013042
:101D6A00A90013212330A4000030A5005F30A6008B
:101D7A000130A700F52020003C082300A400200021
:101D8A003D082300A50020003E082300A6002000ED
:101D9A003F082300A7005F30A8000130A9001321E3
:101DAA005A30A4000030A5005F30A6000130A70019
:101DBA00F52020006C082300A40020006D082300F1
:101DCA00A50020006E082300A60020006F0823004B
:101DDA00A7005F30A8000130A90013214C30A400ED
:101DEA000030A5005F30A6000130A700F520403082
:101DFA00C2000030C30080315E26883120006C08A2
:101E0A00F4006D08F5006E08F6006F08F700003060
:101E1A00F0000030F1002030F2008130F300803110
:101E2A008A228831013003180030F0007008031943
:101E3A00272FAF302300C2000030C30080315E2656
:101E4A0088312F2F2300B530C2000030C300803103
:0C1E5A005E2688312100A001912D322F5E
:101F8400363084008F3085004D30F0000130F10090
:101F940023308600003087008031F0278831833079
:101FA40084008F3085001A30F0000130F100A03039
:0E1FB4008600003087008031F0278831080059
:101E6C0063346F346F347234643465346E3461347B
:101E7C00643461342E347434783474343D34223404
:021E8C00003420
:081E8E0000340034003400347C
:081E9600003400340034003474
:081E9E0000340034003400346C
:101EA60061346C3465347234743461342E34703475
:081EB600693463343D3400344B
:101EBE0064346934733474346334613462342E346C
:0C1ECE007434783474343D342234003411
:101EDA0063346F346F347234643465346E3461340D
:101EEA006434613431342E347434783474343D3487
:041EFA00223400345A
:081EFE0000340034003400340C
:021F06000034A5
:081F0800003400340034003401
:081F10000034003400340034F9
:041F1800223400343B
:081F1C00FF34FF34FF340034F0
:0A1F24003234FF34FF34FF34003480
:021F2E0000347D
:0A1F30003134FF34FF34FF34003475
:101F3A00EC34F3344A3490343534953495348F3450
:101F4A001734C1345C348B34FD34DB34ED348634DD
:081F5A007234B33433348034D7
:101F62002B343434013490347F349D3430348B3408
:101F7200E734FF34593485340034003400347F347C
:020000040001F9
:04000E00843F131701
:00000001FF
