:02000000782F57
:1000080070082000A2007108A1008031911E3928D3
:100018006E2770082100C5002F282000AC01013090
:10002800A3003928392820000D30F0002030F100D5
:100038002C08700786000030713D870021004508B4
:1000480081002000AC0A2C08700786000030713D42
:10005800870081013928210045080D3A0319112824
:1000680045080A3A03191628172820002208F00024
:060078002108F10009005F
:0E007E00F201F101F001F801F3010030080079
:10008C007B15FB1F50280130F300F201F101F00148
:08009C00FA0DF20CFF30080020
:0800A400FA1FF21300300800FE
:1000AC00FB14FB1F6028FF30F300F200F100F0009E
:0800BC00FA0DF20CFF30080000
:1000C4007C189828FC1869287C19B7286228A00194
:1000D4007208031D89287108F2007008F10078087D
:1000E400F000F801A0157208031D89287108F200B8
:1000F4007008F100F001A01120167208031D892870
:100104007108F200F101A01572080319AB28200848
:10011400F302031D031CAF280310F21B9828F80DEB
:10012400F00DF10DF20DF30B8F28AF287B1B701C23
:10013400B328F81FB328F00A0319F10A0319F20AC5
:10014400031DB328F20CF10CF00CF30A0319B728C1
:10015400B3280130FC003F20BA280230FC004620BE
:10016400BA280430FC005220BA280830FC0056207B
:04017400000008007F
:100178002000FB017308031D770803191229720870
:100188007606FA007708F3077E30031CCF28F302BF
:1001980003181529D228F302031C18297208F8003D
:1001A8007108FC007008FD00F817F6170310F2013B
:1001B800F101F0011830A0007D1CEC287408F0074C
:1001C80075080318750FF10776080318760FF207FC
:1001D800F20CF10CF00CF80CFC0CFD0C0310A00B4D
:1001E800E028F21BFC28F80DF00DF10DF20DF303D9
:1001F8007B1B701C0E29F81F0E29F00A0319F10A3F
:100208000319F20A031D0E29F20CF10CF00CF30A83
:1002180003191529FA1FF21300301A2901303F205B
:100228001A29023056201A290430462000000800F6
:1002380020002230FC00F801F901FA01FB01FC035F
:10024800031951290310FB0CFA0CF90CF80CF30CE8
:10025800F20CF10CF00C031C2329FC0303194329AD
:100268007408F80775080318750FF9077608031856
:10027800760FFA0777080318770FFB072729740802
:10028800F80775080318750FF90776080318760F2D
:0C029800FA0777080318770FFB0708002F
:1002A4002000FA017308031D7A147708031DFA1459
:1002B4007A0803199D29033A031968297A186529CC
:1002C400F61F9B299929F21F99299B2972088039C5
:1002D400FA00F21376088039F6137A0603197629A0
:1002E4007A08031999299B297708730203197D2930
:1002F400031C912995297608720203198429031C89
:10030400912995297508710203198B29031C9129D8
:1003140095297408700203199D2903189529FA0870
:1003240003199B299929FA08031999299B2903146C
:0E033400080003100800031403150800080059
:10034200200073087706031DB32972087606031D81
:10035200B32971087506031DB329700874060319C1
:0A036200031508000311080008004D
:10036C0020007008F8007108F0007208F1007308A2
:10037C00F200F301FB01FC019E30F300FA01F21FC5
:10038C00D329F809F009F109F209F80A0319F00A5E
:10039C000319F10A0319F20AFA170230FC00622061
:0203AC00080047
:1003AE0020007008F100F0010830FC007108F40C18
:1003BE000318E529FC0BDE29F10100340310EA29AC
:1003CE00F40C0318F107F10CF00CFC0BE7290800F4
:1003DE0022003508393C031CFB2930303502031C42
:0C03EE00FB290130F000FC29F0010800A0
:1003FA0022003508203A03190D2A35080D3C031C42
:10040A000B2A09303502031C0B2A0D2AF0010F2A88
:06041A000130F0000800B3
:1004200022002C082D0403191E2A2C0886002D08F2
:1004300087002A0881002B08413181002A088400A6
:100440002B0885000008F0007008B0007008B500A7
:10045000FD2170080319302AAA0A0319AB0A1E2AC3
:10046000AE010030B01BFF30F00000307006031DFD
:100470003B2A2D303006031D432A0130AE00AA0A64
:100480000319AB0A522A0030B01BFF30F0000030D5
:100490007006031D4D2A2B303006031D522AAA0A6E
:1004A0000319AB0AB001B101B201B301B401AF014C
:1004B0002E1A672A2A0884002B08850000082E3A85
:1004C000031D672A2E16AA0A0319AB0AC22A2A0894
:1004D00084002B0885000008B500EF217008031D7B
:1004E000722AC32AAE140030B01BFF30003A031D3D
:1004F0007B2A083030060319BC2A2E1E802AAF033F
:10050000B00A3108F0003208F1003308F200340874
:10051000F3000A30F400F501F601F7011C21700820
:100520002200B1007108B2007208B3007308B40071
:10053000000000002A0884002B08850030300002EB
:10054000F000F1010030F13B0030F11BFF30F20010
:10055000F3003108F0073208F13D3308F23D34086A
:10056000F33D7008B1007108B2007208B30073085F
:10057000B40000000000BF2A2E1ABF2AAF0AAA0A40
:100580000319AB0A582AB0012A0884002B088500F9
:100590000008653A0319D52A2A0884002B0885002B
:1005A0000008453A0319D52A4C2BAA0A0319AB0AAD
:1005B0002A0884002B08850000082D3A031DE52A2F
:1005C000AE15AA0A0319AB0AF02A2A0884002B08E0
:1005D000850000082B3A031DF02AAA0A0319AB0A6A
:1005E0002A0884002B0885000008303A031DFC2AE5
:1005F000AA0A0319AB0AF02A2A0884002B088500EE
:100600000008B500EF2170080319472B2A08840061
:100610002B08850030300002B000AA0A0319AB0A8B
:100620002A0884002B0885000008B500EF21700817
:100630000319472B3008F0000A30F400D7212200BC
:100640002A0884002B08850030300002F100710870
:100650007007B000AA0A0319AB0A2A0884002B0805
:1006600085000008B500EF2170080319472B3008FA
:10067000F0000A30F400D72122002A0884002B0859
:10068000850030300002F10071087007B000AE1D27
:100690004C2B3008003CB0003008AF0700302D066E
:1006A000031D542B00302C060319612BAE1C612B4B
:1006B0002C0886002D0887002A0881002B0841316C
:1006C00081003108F0003208F1003308F2003408EC
:1006D000F300B62170082200B1007108B200720860
:1006E000B3007308B400F401F501F601F701310815
:1006F000F0003208F1003308F2003408F300A121C1
:100700000130031D0030F000700803198C2BF0013C
:10071000F101F201F3019A2C803022002F06F00043
:100720008030003A700203180B2C2F08003CAF00F9
:1007300080302F06F00080300A3A7002031CBD2B77
:100740003108F0003208F1003308F2003408F300F9
:10075000FF30F400E630F5005B30F6005D30F70066
:10076000BC2070082200B1007108B2007208B3000A
:100770007308B4000A30AF02982B2F08003A03190F
:10078000DD2B3108F0003208F1003308F2003408A4
:10079000F300CD30F400CC30F5004C30F6007B3067
:1007A000F700BC2070082200B1007108B200720886
:1007B000B3007308B400AF03BD2B0130F400003068
:1007C000F5000030F6000130F7003108F000320883
:1007D000F1003308F2003408F3005221013003180D
:1007E0000030F000700803190A2C22002E1C012C86
:1007F0000130F0000030F1008030F2000330F300EF
:100800009A2C0130F0000030F1000030F20001308D
:10081000F3009A2C822C22008030003AF0008030C5
:100820002F0670020318822C0A302F02031C352C6D
:100830003108F0003208F1003308F2003408F30008
:10084000F930F4000230F5001530F600A030F70062
:10085000BC2070082200B1007108B2007208B30019
:100860007308B4000A30AF02142C2F08003A0319A1
:10087000552C3108F0003208F1003308F20034083A
:10088000F3000030F4000030F5002030F600823034
:10089000F700BC2070082200B1007108B200720895
:1008A000B3007308B400AF03352C3108F4003208EC
:1008B000F5003308F6003408F700FF30F000FF3091
:1008C000F1007F30F200FF30F300522101300318B5
:1008D0000030F00070080319822C22002E1C792CA5
:1008E000FF30F000FF30F100FF30F200FF30F30086
:1008F0009A2CFF30F000FF30F1007F30F200FF3023
:10090000F3009A2C22002E1C922C00303106F000AD
:1009100000303206F10080303306F2000030340639
:10092000F3009A2C3108F0003208F1003308F2008D
:060930003408F30008008A
:06093600FB15FF30080074
:10093C00A0017208031DB32C7108F2007008F100BD
:10094C00F001A0157208031DB32C7108F200F1011F
:10095C00A011201672080319C12C2008F302031DE4
:10096C00031CC52C0310F21BC92CF00DF10DF20D5C
:10097C00F30BB92CC52C0130FC003F20CC2C0230E1
:0E098C00FC004620CC2C0430FC005220080059
:10099A002000FB01FA01F9018030F800F10CF00C9B
:1009AA00031CE02C7408F90775080318750FFA0779
:1009BA000318FB0A0310F01FE82C7408FA077508DD
:1009CA000318750FFB07FB0CFA0CF90CF80C031C47
:1009DA00D32C7B08F3007A08F2007908F100780832
:0409EA00F000080011
:1009EE0021006E0884006F08850000082200A40014
:1009FE00A5010030A50000302506031D082D20306E
:100A0E0024060319132D00302506031D102D093061
:100A1E0024060319132D182D2100EE0A0319EF0ACF
:100A2E00F72C2200A601A701A801A9010030250676
:100A3E00031D232D2D302406031D2D2DA80A031969
:100A4E00A90A2100EE0A0319EF0A3A2D00302200FE
:100A5E002506031D342D2B302406031D3A2D2100AF
:100A6E00EE0A0319EF0A21006E0884006F08850054
:100A7E0000082200A400A5010030A5002408B5003E
:100A8E00EF2170080319662D2608F0002708F100E3
:100A9E000A30F4000030F500CD243030220024025C
:100AAE00F2000030253BF30072087007A6007308B1
:100ABE00713DA7002100EE0A0319EF0A3A2D22001C
:100ACE00280829040319742D2608003CF000270875
:100ADE00031C013EF101F102782D2608F0002708D3
:040AEE00F10008000B
:100AF2007408003A031D922D7508003A031D922DC9
:100B02007608003A031D922D7708003A031D922DB4
:100B1200FF30F000FF30F1007F30F200FF30F300D1
:100B22002C2E200077080319202E73080319232E78
:100B3200720876068039FA00F217F617A0017208D9
:100B4200F8007108FC007008FD007408FD027508C9
:100B5200031C750FFC027608031C760FF802F801DD
:100B6200FC01FD01031CBC2D0310F20CF10CF00C76
:100B7200F80C0130A0007708F302031CC62D7E306A
:100B82002007F3070318262ECB2D7E302007F3070C
:100B9200031C292E1830FA07FD0DFC0DF80DF00D7F
:100BA200F10DF20DA00D7408F0027508031C750F0B
:100BB200F1027608031C760FF202760DA004201CC7
:100BC200E42D7D14EF2D7408F00775080318750FD6
:100BD200F10776080318760AF2077D10FA031F3030
:100BE2007A05031DCD2D7B1B7D1C162E0310F00DE7
:100BF200F10DF20DA00D7408F0027508031C750FBB
:100C0200F1027608031C760FF202760D20040139F8
:100C1200FD070318FC0A0319F80A031D162EF80C27
:100C2200FC0CFD0CF30A0319262EFA1FF8137808A0
:100C3200F2007C08F1007D08F00000302B2E01301C
:100C42009B242B2E02303F202B2E043056202B2E9D
:080C52000830462000000800F4
:100C5A00200072087606A000F801F90173087702ED
:100C6A00031C4F2E7708FD007308F7007D08F30078
:100C7A007608FD007208F6007D08F2007508FD008E
:100C8A007108F5007D08F1007408FD007008F40091
:100C9A007D08F00077080319C82E7208FA00F217C7
:100CAA00F61777087302F7000319822E08307702C5
:100CBA00031C782EF7007408F9007508F40076080A
:100CCA00F500F60108307702031C782EF700740845
:100CDA00F9007508F400F50108307702031C782E34
:100CEA007A08F200C82E77080319822E0310F60C30
:100CFA00F50CF40CF90CF70B7B2EA01F8F2EF909BB
:100D0A00F409F509F609F90A0319F40A0319F50AA7
:100D1A000319F60A7908F80774080318740FF0071C
:100D2A0075080318750FF10776080318760FF2078E
:100D3A00A01BA82E031CB82EF20CF10CF00CF80C18
:100D4A00F30FB82EC42E0318BC2EF809F009F109C6
:100D5A00F209F80A0319F00A0319F10A0319F20A47
:100D6A008030FA06C02E0130FC006220CA2E023002
:100D7A00FC006220CA2E0430FC009E24CA2E0830D1
:0E0D8A00FC005620CA2E0030FC0000000800BD
:100D980020007008F8007108F000F101F201F30179
:100DA800FB01FC019630F300FA01F01FE12EF8096F
:100DB800F009F80A0319F00AFA177008F100780820
:0A0DC800F000F801F2019E2408007B
:100DD20021006E082200AA0021006F082200AB0049
:080DE200AC01AD011022080074
:100DEA00210052088400530885000008243A031D94
:100DFA00332F0130520784000030533D850000082C
:100E0A00473A031D332F0230520784000030533D06
:100E1A0085000008503A031D332F0330520784001F
:100E2A000030533D85000008473A031D332F043034
:100E3A00520784000030533D85000008473A031DDD
:100E4A00332F0530520784000030533D85000008D7
:100E5A00413A031D332F0130F000342FF00108000E
:100E6A00FF302100C100FF30C200FF30C300FF3055
:100E7A00C4006E30CA000730CB000030CC0000300E
:100E8A00CD00FF30CE00FF30CF000030D000003060
:100E9A00D100FF30C600FF30C7000030C800003064
:100EAA00C90023009E1690309D0021008D140D115B
:100EBA002000911E642F23001908F0005D2F0800FE
:100ECA0012001E00F003031D652FF103031D652F99
:020EDA0008000E
:100EDC0023001908F1009D1C752F1D121D16710899
:040EEC00F00008000A
:100EF0002000A301A401A501A601A701A801A90141
:100F0000AA01AB01AC01F030210099008C018D01E8
:100F100023008C018D0121008D1491160B178B1766
:100F200023009F1540309B0003309C001E15352781
:100F3000200023080319B12F0D302100D2002030EA
:100F4000D300F52670080319AF2F0D30D2002030E2
:100F5000D30088310020803170080319AF2F2000A2
:060F6000A301982FB22F3F
:1010000007302100ED006D08520784000030533D89
:10101000850000082C3A03190F28ED0A0328ED0A71
:101020006D08520784000030533D850000082C3ABB
:10103000031D1C28F0013229EC016D0852078400C1
:101040000030533D850000082C3A03194328D43062
:101050008600003087006C0886070318870A6D0831
:10106000520784000030533D850000088100EC0ADF
:10107000D4308600003087006C0886070318870A82
:101080008101ED0A1D28D630EE000030EF008031DE
:10109000E926883170082100E8007108E90072082B
:1010A000EA007308EB00D601D430EE000030EF0008
:1010B0008031F72488318031CC26883170082200B5
:1010C000A0007108A1007208A2007308A3000030FC
:1010D000F4000030F5007030F6008430F700210095
:1010E0006808F0006908F1006A08F2006B08F30074
:1010F00080317925883122002008F4002108F5008C
:101100002208F6002308F70080312D268831700868
:10111000A4007108A5007208A6007308A7002100AA
:10112000ED0A6D08520784000030533D8500000829
:10113000533A031DA42800302000A4060030A50661
:101140008030A6060030A7062100ED0AED0AEC016A
:101150006D08520784000030533D850000082C3A8A
:101160000319CE28D4308600003087006C0886072B
:101170000318870A6D08520784000030533D85002C
:1011800000088100EC0AD4308600003087006C082B
:1011900086070318870A8101ED0AA828D730EE00D8
:1011A0000030EF008031E926883170082100E80026
:1011B0007108E9007208EA007308EB00D701D43027
:1011C000EE000030EF008031F72488318031CC26EA
:1011D000883170082200A0007108A1007208A200E6
:1011E0007308A3000030F4000030F5007030F60002
:1011F0008430F70021006808F0006908F1006A08EF
:10120000F2006B08F3008031792588312200200834
:10121000F4002108F5002208F6002308F7008031C9
:101220002D2688317008A8007108A9007208AA004C
:101230007308AB002100ED0AED0A6D085207840027
:101240000030533D85000008573A031D3029003017
:101250002000A8060030A9068030AA060030AB06A0
:061260000130F00008005F
:020000040001F9
:04000E00843F131701
:00000001FF
