:0400000088311C2CFB
:1000080070082000A2007108A1008031911E3928D3
:10001800DA2770082100D1002F282000B80101300C
:10002800A7003928392820001930F0002030F100C5
:100038003808700786000030713D8700210051089C
:1000480081002000B80A3808700786000030713D2A
:10005800870081013928210051080D3A0319112818
:1000680051080A3A03191628172820002208F00018
:060078002108F10009005F
:10007E00FB14FB1F4928FF30F300F200F100F000E3
:08008E00FA0DF20CFF3008002E
:0E009600F201F101F001F801F3010030080061
:1000A4007B15FB1F5C280130F300F201F101F00124
:0800B400FA0DF20CFF30080008
:0800BC00FA1FF21300300800E6
:1000C4007C189828FC1869287C19B7286228A00194
:1000D4007208031D89287108F2007008F10078087D
:1000E400F000F801A0157208031D89287108F200B8
:1000F4007008F100F001A01120167208031D892870
:100104007108F200F101A01572080319AB28200848
:10011400F302031D031CAF280310F21B9828F80DEB
:10012400F00DF10DF20DF30B8F28AF287B1B701C23
:10013400B328F81FB328F00A0319F10A0319F20AC5
:10014400031DB328F20CF10CF00CF30A0319B728C1
:10015400B3280130FC004B20BA280230FC005220A6
:10016400BA280430FC005E20BA280830FC003F2086
:04017400000008007F
:10017800A0017208031DD1287108F2007008F1006F
:10018800F001A0157208031DD1287108F200F101D1
:10019800A011201672080319DF282008F302031D96
:1001A800031CE3280310F21BE728F00DF10DF20DF4
:1001B800F30BD728E3280130FC004B20EA28023053
:0E01C800FC005220EA280430FC005E200800F3
:1001D600200072087606A000F801F901730877027C
:1001E600031C0D297708FD007308F7007D08F3004E
:1001F6007608FD007208F6007D08F2007508FD001D
:100206007108F5007D08F1007408FD007008F4001F
:100216007D08F0007708031986297208FA00F2179C
:10022600F61777087302F70003194029083077029A
:10023600031C3629F7007408F9007508F4007608DF
:10024600F500F60108307702031C3629F70074081A
:10025600F9007508F400F50108307702031C362909
:100266007A08F20086297708031940290310F60C4C
:10027600F50CF40CF90CF70B3929A01F4D29F909D7
:10028600F409F509F609F90A0319F40A0319F50A36
:100296000319F60A7908F80774080318740FF007AB
:1002A60075080318750FF10776080318760FF2071D
:1002B600A01B6629031C7629F20CF10CF00CF80C35
:1002C600F30F7629822903187A29F809F009F1092A
:1002D600F209F80A0319F00A0319F10A0319F20AD6
:1002E6008030FA067E290130FC006220882902301F
:1002F600FC00622088290430FC00BC2088290830D4
:0E030600FC003F2088290030FC0000000800A9
:100314007B14FB1F9529F201FA1FFF30F200F10054
:0A032400F000FA0DF20CFF300800A3
:10032E002000FB01FC01F801730803190E2A720864
:10033E00FA00F2179E30F302F31FFE29F309F30AB7
:10034E0008307302031CD329F300F80D7008F8006F
:10035E007108F0007208F100F20108307302031CFC
:10036E00D329F300F80D7008F8007108F000F101C0
:10037E0008307302031CD329F300F80D7008F8003F
:10038E00F00108307302031CD329F300F80DF801B5
:10039E007308031D0310DD2973080319DD290310EB
:1003AE00F20CF10CF00CF80CF30BD6297B1B781C1D
:1003BE00EB29031CEB29F80A0319F00A0319F10AB9
:1003CE000319F20AF21B0B2AFA1F0E2AF209F1097F
:1003DE00F009F809F80A0319F00A0319F10A0319CA
:1003EE00F20A0E2AF201F101F001F8010E2A7B1435
:1003FE00FB1F112AF201FA1F112AF200F100F00080
:10040E00F800FA0DF20C112A0130FC00132A00300C
:10041E00FC00132AFF30FC00FC080319172A8A215E
:10042E007208F3007108F2007008F1007808F0000D
:02043E000800B4
:100440002000FB017308031D77080319762A720840
:100450007606FA007708F3077E30031C332AF3028E
:100460000318792A362AF302031C7C2A7208F80042
:100470007108FC007008FD00F817F6170310F20170
:10048000F101F0011830A0007D1C502A7408F0071B
:1004900075080318750FF10776080318760FF20731
:1004A000F20CF10CF00CF80CFC0CFD0C0310A00B82
:1004B000442AF21B602AF80DF00DF10DF20DF30342
:1004C0007B1B701C722AF81F722AF00A0319F10AAA
:1004D0000319F20A031D722AF20CF10CF00CF30A54
:1004E0000319792AFA1FF21300307E2A01304B20BB
:1004F0007E2A02303F207E2A04305220000008006D
:06050000FB15FF300800AE
:1005060020007008F8007108F0007208F100730806
:10051600F200F301FB01FC019E30F300FA01F21F29
:10052600A02AF809F009F109F209F80A0319F00AF4
:100536000319F10A0319F20AFA170230FC006220C5
:020546000800AB
:0A05480020008030F606EB200800CA
:100552002000FA017308031D7A147708031DFA14A8
:100562007A080319F42A033A0319BF2A7A18BC2A13
:10057200F61FF22AF02AF21FF02AF22A72088039B4
:10058200FA00F21376088039F6137A060319CD2A97
:100592007A080319F02AF22A770873020319D42A77
:1005A200031CE82AEC2A760872020319DB2A031CD0
:1005B200E82AEC2A750871020319E22A031CE82AC8
:1005C200EC2A740870020319F42A0318EC2AFA08B8
:1005D2000319F22AF02AFA080319F02AF22A03145C
:0E05E2000800031008000314031508000800A9
:1005F00022005708F000F101F201F301FF30F0058D
:100600000030F1057008DC007108DD007F307002F9
:10061000F2000030713BF3007208DC007308DD006B
:1006200080307306F00080307002031D192B0030FB
:10063000720203183D2BF401F501F601F70154088D
:10064000F0005508F1005608F2005708F300A922FF
:10065000013003180030F00070080319382B003007
:10066000F0000030F1008030F2007F30F300962B74
:10067000F001F101F201F301962B22005D08003C2C
:10068000031D442B5C08183C03184F2B5408F00042
:100690005508F1005608F2005708F300962B54084D
:1006A000F0005508F1005608F2005708F3009721B2
:1006B000832270082200D8007108D9007208DA007D
:1006C0007308DB007008F4007108F5007208F6008A
:1006D0007308F7005408F0005508F1005608F200BE
:1006E0005708F300A922013003180030F000700809
:1006F00003198D2B0030F4000030F5000030F600B7
:100700007F30F70022005808F0005908F1005A081D
:10071000F2005B08F300A422962B22005808F00098
:0E0720005908F1005A08F2005B08F3000800C7
:10072E00303022005402F000F1010030F13B08009D
:10073E0022005A08F0005B08F100F035F10DF0359B
:10074E00F10D7008580784007108593D85000008A6
:10075E00DC0001310008DD0001310008DE0001314E
:10076E000008DF005A085B040319F72B5408F00049
:10077E005508F1005608F2005708F3005C08F40023
:10078E005D08F5005E08F6005F08F70020220130D4
:10079E002200DA020030DB3B5A08F4005B08F50059
:1007AE00F435F50DF435F50D740858078400750809
:1007BE00593D85000008F40001310008F5000131B3
:1007CE000008F60001310008F700EB207008220047
:1007DE00DC007108DD007208DE007308DF00B92B43
:1007EE005C08F0005D08F1005E08F2005F08F3009F
:0207FE000800F1
:100800007408003A031D192C7508003A031D192CB1
:100810007608003A031D192C7708003A031D192C9D
:10082000FF30F000FF30F1007F30F200FF30F300C6
:10083000B32C200077080319A72C73080319AA2CDE
:10084000720876068039FA00F217F617A0017208CE
:10085000F8007108FC007008FD007408FD027508BE
:10086000031C750FFC027608031C760FF802F801D2
:10087000FC01FD01031C432C0310F20CF10CF00CE5
:10088000F80C0130A0007708F302031C4D2C7E30D9
:100890002007F3070318AD2C522C7E302007F307F6
:1008A000031CB02C1830FA07FD0DFC0DF80DF00DEF
:1008B000F10DF20DA00D7408F0027508031C750F00
:1008C000F1027608031C760FF202760DA004201CBC
:1008D0006B2C7D14762C7408F00775080318750FBF
:1008E000F10776080318760AF2077D10FA031F3025
:1008F0007A05031D542C7B1B7D1C9D2C0310F00DD1
:10090000F10DF20DA00D7408F0027508031C750FAF
:10091000F1027608031C760FF202760D20040139ED
:10092000FD070318FC0A0319F80A031D9D2CF80C97
:10093000FC0CFD0CF30A0319AD2CFA1FF813780810
:10094000F2007C08F1007D08F0000030B22C01308C
:100950008022B22C02304B20B22C04303F20B22C2B
:080960000830522000000800DD
:1009680020007008F8007108F000F101F201F301AD
:10097800FB01FC019630F300FA01F01FC92CF809BD
:10098800F009F80A0319F00AFA177008F100780854
:0A099800F000F801F201BC20080095
:1009A200710DF80DF90D7408F8027508031C750F26
:1009B200F902F00DF10D0F30FC00710DF80DF90D7B
:1009C2007408701CEA2CF8027508031C750FF902F2
:1009D200EF2CF80775080318750FF907F00DF10DE4
:1009E200FC0BDE2C7018FB2C7408F8077508031832
:0809F200750FF9070000080071
:1009FA0023009E18022D0000FD2C2200410823002E
:040A0A009A00080046
:100A0E007408003A031D142D7508003A031D142DA9
:100A1E00FF30F0007F30F1006C2D2000FD01F90158
:100A2E00F801710870040319003471087506FA0094
:100A3E00FA1BFD09FB01F51F292DF409F509F40A2E
:100A4E000319F50AF11F302DF009F109F00A031907
:100A5E00F10A71087504FA00FA1B452DD1247B1892
:100A6E00582DFD1F0034F009F109F00A0319F10A9F
:100A7E00F809F909F80A0319F90A0034F51F542D7B
:100A8E00F11B502D7108F9007008F800F101F0010A
:100A9E00382DF101F001F00A0034F109F009FB0ADA
:100AAE00352DF80A0319F90A74087802031D382D3A
:100ABE0075087902031D382DF901F801F00A0319A2
:0C0ACE00F10AF11F382D0000FF34080071
:100ADA002000FB0173080319A92D7208FA00F21706
:100AEA008E30F302F31FAC2DF309F30A08307302B8
:100AFA00031C8F2DF300F10D7208F100F20108308A
:100B0A007302031C8F2DF300F10DF1017308031D0D
:100B1A000310972D73080319972D0310F20CF10C8B
:100B2A00F30B922D7B1B711CA12D031CA12DF10A25
:100B3A000319F20AF21BB82DFA1FBB2DF209F109AB
:100B4A00F10A0319F20ABB2DF201F101BB2D7B1444
:100B5A00FB1FBE2DF201FA1FBE2DFF30F200F1007D
:100B6A00FA0DF20CBE2D0130FC00C02D0030FC0045
:100B7A00C02DFF30FC00FC080319C42D8A2171081E
:080B8A00F0007208F100080000
:100B92002200C901F401F501F601F7014108F00054
:100BA2004208F1004308F2004408F300A922013090
:100BB20003180030F00070080319EA2D00302200FB
:100BC200C1060030C2068030C3060030C4060130C0
:100BD200C90022004108F0004208F1004308F20077
:100BE2004408F3008330F400F930F5002230F600B7
:100BF2007C30F700202270082200C1007108C20078
:100C02007208C3007308C4007008D4007108D500CC
:100C12007208D6007308D700F8227008F400710831
:100C2200F5007208F6007308F70022004108F00090
:100C32004208F1004308F2004408F300A422003005
:100C4200F4000030F5000030F6008130F700202279
:100C520070082200C1007108C2007208C300730844
:100C6200C4007008F4007108F5007208F6007308F9
:100C7200F7000030F0000030F1000030F200803068
:100C8200F300A922013003180030F00070080319A4
:100C92006A2E0030F4000030F5000030F60080309B
:100CA200F70022004108F0004208F1004308F20078
:100CB2004408F300A42270082200C1007108C20097
:100CC2007208C3007308C40049080130031D0030D4
:100CD200C90022004108F4004208F5004308F6006A
:100CE2004408F7000030F0000030F1000030F2005C
:100CF2007F30F300A922013003180030F0007008A1
:100D020003199E2E22004108F4004208F500430810
:100D1200F6004408F7000030F0000030F100003027
:100D2200F2008030F300A42270082200C100710892
:100D3200C2007208C3007308C40022004108F00018
:100D42004208F1004308F2004408F3004108F400AD
:100D52004208F5004308F6004408F7002022700814
:100D62002200C5007108C6007208C7007308C800D7
:100D72007008D4007108D5007208D6007308D70035
:100D8200E430D8008730D9000430DA000030DB00CC
:100D92009F234108F4004208F5004308F600440886
:100DA200F700202270082200C1007108C2007208F8
:100DB200C3007308C4004508D4004608D50047089C
:100DC200D6004808D700E030D8008D30D900033073
:100DD200DA000030DB009F237008F4007108F50090
:100DE2007208F6007308F7004108F0004208F100AB
:100DF2004308F2004408F300002470082200C100F6
:100E02007108C2007208C3007308C40049080319BC
:100E1200172F00304106F00000304206F10080300A
:100E22004306F20000304406F3001F2F4108F00091
:0E0E32004208F1004308F2004408F3000800F3
:100E40002200A40121006D0884006E0885000008BE
:100E5000EF006F08003A03193D2F6F082200C10010
:100E6000FD242200A40A240821006D07840000301C
:0C0E70006E3D85000008EF00292F0800EF
:100E7C0022002408F4002508F5002608F6002708AF
:100E8C00F700DB30F0000F30F1004930F200803019
:100E9C00F300A922013003180030F0007008031988
:100EAC00742FE430F400CB30F5001630F6008130AE
:100EBC00F70022002408F0002508F1002608F200B3
:100ECC002708F300A42270082200C1007108C20098
:100EDC007208C3007308C400C925902F220024088F
:100EEC00F0002508F1002608F2002708F300DB309B
:100EFC00F4000F30F5004930F6007F30F700EB209E
:100F0C0070082200C1007108C2007208C300730887
:060F1C00C400C925080015
:100F220021006D0884006E0885000008243A031D24
:100F3200CF2F01306D07840000306E3D8500000820
:100F4200473A031DCF2F02306D07840000306E3DFB
:100F520085000008503A031DCF2F03306D0784002F
:100F620000306E3D85000008473A031DCF2F043044
:100F72006D07840000306E3D85000008473A031D6E
:100F8200CF2F05306D07840000306E3D85000008CC
:100F9200413A031DCF2F0130F000D02FF00108009D
:100FA20012001E00F003031DD12FF103031DD12FE8
:020FB200080035
:100FB40023001908F1009D1CE12F1D121D16710854
:040FC400F000080031
:101000002200C301C401C501C6010030C700003081
:10101000C8000030C9007F30CA00CD30CB00CC30D2
:10102000CC004C30CD007B30CE00CF014108840095
:101030004208850000082D3A031D27280030C7000C
:101040000030C8008030C9007F30CA00CF0A4F0886
:10105000410784000030423D85000008003A031932
:1010600029294F08410784000030423D8500303077
:101070000002031C85284F08410784000030423DD0
:1010800085000008393C031C85284308F00044080B
:10109000F1004508F2004608F3000030F40000308B
:1010A000F5002030F6008230F700803120228831B0
:1010B00070082200D0007108D1007208D2007308B5
:1010C000D3004F08410784000030423D85000008EE
:1010D000D4008031972388318031B42488312200B4
:1010E0005008F4005108F5005208F6005308F700C4
:1010F0008031EB20883170082200C3007108C400E1
:101100007208C5007308C60026294F0841078400ED
:101110000030423D850000082E3A031D1229CF0AF7
:101120004F08410784000030423D85000008003A26
:10113000031911294F08410784000030423D850002
:1011400030300002031CFA284F08410784000030A9
:10115000423D85000008393C031CFA284F0841072E
:1011600084000030423D85000008D4008031972380
:1011700088318031B424883122004B08F4004C08B7
:10118000F5004D08F6004E08F70080312022883126
:1011900022004308F4004408F5004508F60046081C
:1011A000F7008031EB20883170082200C3007108FD
:1011B000C4007208C5007308C6004B08F0004C0854
:1011C000F1004D08F2004E08F300CD30F400CC30B1
:1011D000F5004C30F6007B30F7008031202288315A
:1011E00070082200CB007108CC007208CD00730893
:1011F000CE000E294308F0004408F1004508F20033
:101200004608F3004708F4004808F5004908F600CE
:101210004A08F7008031202288313C292200CF0A79
:10122000902829294308F0004408F1004508F200FD
:101230004608F3004708F4004808F5004908F6009E
:101240004A08F7008031202288313C292200CF0A49
:1012500027284308F0004408F1004508F20046083A
:10126000F3004708F4004808F5004908F6004A086A
:0A127000F7008031202288310800C9
:10127A0022002408AA002508AB002608AC0027088B
:10128A00AD002100EF012200B201F401F501F601DF
:10129A00F7012A08F0002B08F1002C08F2002D08AB
:1012AA00F3008031A9228831013003180030F000A0
:1012BA0070080319752900302200AA060030AB060F
:1012CA008030AC060030AD0621006F0822002807E6
:1012DA0086000030293D87002D3081002100EF0A69
:1012EA0022002A08F0002B08F1002C08F2002D0831
:1012FA00F30080316D25883170082100ED007108F6
:10130A00EE006F0822002807B3000030293DB40020
:10131A006430F4000030F500803107258831303020
:10132A00F00722003308860034088700700881001D
:10133A002100EF0A6F0822002807B3000030293D78
:10134A00B4000A30F4000030F50021006D08F00006
:10135A006E08F1008031072588310A30F400003028
:10136A00F5008031072588317808F0007908F10006
:10137A003030F007220033088600340887007008EE
:10138A0081002100EF0A6F0822002807B30000300D
:10139A00293DB4000A30F4000030F50021006D0840
:1013AA00F0006E08F1008031072588317808F000D6
:1013BA007908F1003030F00722003308860034083B
:1013CA008700700881002100EF0A6F0822002807B1
:1013DA0086000030293D87002E3081002100EF0A67
:1013EA006D08F0006E08F1008031B424883170086D
:1013FA00F4007108F5007208F6007308F70022007D
:10140A002A08F0002B08F1002C08F2002D08F3003E
:10141A008031A422883170082200AE007108AF0022
:10142A007208B0007308B100063032020318742A39
:10143A002E08F0002F08F1003008F2003108F300FE
:10144A000030F4000030F5002030F6008230F7005A
:10145A0080312022883170082200AE007108AF0066
:10146A007208B0007308B10080316D2588317008A8
:10147A002100ED007108EE006F082200280786009F
:10148A000030293D87003030F007700881002100C4
:10149A00EF0A6D08F0006E08F1008031B42488313B
:1014AA007008F4007108F5007208F6007308F70076
:1014BA0022002E08F0002F08F1003008F20031084F
:1014CA00F3008031A422883170082200AE0071082E
:1014DA00AF007208B0007308B100B20A192A2100DD
:1014EA006F082200280786000030293D8700810105
:0214FA000800E8
:1014FC0007302200BC003C0821006D07840000303E
:10150C006E3D850000082C3A03198F2A2200BC0A74
:10151C00812A2200BC0A3C0821006D07840000309F
:10152C006E3D850000082C3A031D9E2AF001EB2B22
:10153C00EF0122003C0821006D07840000306E3D55
:10154C00850000082C3A0319CA2A24308600013081
:10155C0087006F0886070318870A22003C082100C1
:10156C006D07840000306E3D850000088100EF0A95
:10157C0024308600013087006F0886070318870A1D
:10158C0081012200BC0A9F2A22002630C1000130B2
:10159C00C200002070082200B8007108B90072085F
:1015AC00BA007308BB00A6012430C1000130C20090
:1015BC00002070082200BD007108BE007208BF0038
:1015CC007308C0000030F4000030F5007030F600F5
:1015DC008430F7003808F0003908F1003A08F200BE
:1015EC003B08F30080310024883122003D08F400D0
:1015FC003E08F5003F08F6004008F7008031EB206C
:10160C0088317008A8007108A9007208AA00730834
:10161C00AB002200BC0A3C0821006D07840000309E
:10162C006E3D85000008533A031D252B0030200029
:10163C00A8060030A9068030AA060030AB062000B0
:10164C002808F0002908F1002A08F2002B08F30002
:10165C003530F400FA30F5000E30F6007930F70032
:10166C008031202288317008AC007108AD007208FE
:10167C00AE007308AF002200BC0ABC0A2100EF01C7
:10168C0022003C0821006D07840000306E3D85006F
:10169C0000082C3A0319712B243086000130870086
:1016AC006F0886070318870A22003C0821006D0783
:1016BC00840000306E3D850000088100EF0A243064
:1016CC008600013087006F0886070318870A81019E
:1016DC002200BC0A462B22002730C1000130C20078
:1016EC00002070082200B8007108B9007208BA0016
:1016FC007308BB00A7012430C1000130C2000020D8
:10170C0070082200BD007108BE007208BF0073088B
:10171C00C0000030F4000030F5007030F60084306A
:10172C00F7003808F0003908F1003A08F2003B08DD
:10173C00F30080310024883122003D08F4003E087B
:10174C00F5003F08F6004008F7008031EB208831A7
:10175C007008B0007108B1007208B2007308B300D1
:10176C002200BC0ABC0A3C0821006D078400003032
:10177C006E3D85000008573A031DCD2B003020002C
:10178C00B0060030B1068030B2060030B30620003F
:10179C003008F0003108F1003208F2003308F30091
:1017AC003530F400FA30F5000E30F6007930F700E1
:1017BC008031202288317008A3007108A4007208BF
:0C17CC00A5007308A6000130F000080022
:1017D800FD302100D2000430D3004130D400013064
:1017E800D500DA30D6000730D7000030D8000030F6
:1017F800D900FF30DA00FF30DB000030DC000030B9
:10180800DD00FF30CD00FF30CE000030CF000030CB
:10181800D00023009E1690309D0021008D140D11DC
:101828002000911E1B2C23001908F000142C08001E
:101838002000A301A401A501A601A701A801A901EF
:10184800AA01AB01AC01AD01AE01AF01B001B1011C
:10185800B201B301B401B501B601B701B801F03066
:10186800210099008C018D0123008C018D0121003C
:101878008D1491160B178B1723009F1540309B0072
:1018880003309C001E15EC23200027080319DE2DC9
:1018980019302100ED002030EE0080319127883189
:1018A80070080319DC2D1930ED002030EE007E227F
:1018B80070080319DC2D3430F4002230F5007F3035
:1018C800F6007B30F70020002C08F0002D08F1000E
:1018D8002E08F2002F08F3008031A4228831700806
:1018E8002200A4007108A5007208A6007308A700CA
:1018F80080313E2788317008F4007108F5007208BD
:10190800F6007308F7000030F0000030F1000030F6
:10191800F2007F30F3008031A42288310030F400D7
:101928000030F5000030F6008030F70080310024E8
:1019380088317008B4007108B5007208B6007308E1
:10194800B7007008F4007108F5007208F600730813
:10195800F7008031202288317008B4007108B50082
:101968007208B6007308B70034302200A400223091
:10197800A5007F30A6007B30A70080313E27883144
:101988007008A0007108A1007208A2007308A300E3
:1019980020002C082200A40020002D082200A50009
:1019A80020002E082200A60020002F082200A700F1
:1019B80080313E2788312008F4002108F5002208EC
:1019C800F6002308F70080312022883170082200B1
:1019D800A0007108A1007208A2007308A3003D309E
:1019E800F4005A30F500A330F6007F30F7002000ED
:1019F8002308F0002408F1002508F2002608F30067
:101A08008031A422883170082200A4007108A50042
:101A18007208A6007308A70080313E278831700835
:101A2800F4007108F5007208F6007308F70000303A
:101A3800F0000030F1000030F2007F30F300803118
:101A4800A422883122002008F4002108F500220889
:101A5800F6002308F7008031202288310030F40096
:101A68000030F5000030F6008030F70080310024A7
:101A7800883170082200A0007108A1007208A20035
:101A88007308A3003D30F4005A30F500A330F60087
:101A98007F30F70020002308F0002408F100250813
:101AA800F2002608F3008031A42288317008220051
:101AB800A4007108A5007208A6007308A700803169
:101AC8003E2788317008F4007108F5007208F600A6
:101AD8007308F7000030F0000030F1000030F20029
:101AE8007F30F3008031A422883122002008F400DE
:101AF8002108F5002208F6002308F700803120228B
:101B080088310030F4000030F5000030F6008030F5
:101B1800F7008031002488313408F4003508F500D6
:101B28003608F6003708F7008031EB208831700856
:101B3800B4007108B5007208B6007308B700280829
:101B48002200A400200029082200A50020002A085D
:101B58002200A60020002B082200A700DE30A800E3
:101B68000030A9003D21DE302100ED000030EE00FC
:101B7800803120278831200030082200A40020006E
:101B880031082200A500200032082200A60020000B
:101B980033082200A700DE30A8000030A9003D214C
:101BA800DE302100ED000030EE0080312027883142
:081BB8002000A701482CDF2DDD
:100FC800EC34F3344A3490343534953495348F34D2
:100FD8001734C1345C348B34FD34DB34ED3486345F
:080FE8007234B3343334803459
:101BC0002B343434013490347F349D3430348B34AE
:101BD000E734FF34593485340034003400347F3422
:020000040001F9
:04000E00843F131701
:00000001FF
