:02000000292FA6
:1000080070082000A2007108A1008031911E3928D3
:100018001F2770082100D1002F2801302000A700D9
:10002800B8013928392820001930F0002030F100B3
:100038003808700786000030713D8700210051089C
:1000480081002000B80A3808700786000030713D2A
:10005800870081013928210051080D3A0319112818
:1000680051080A3A03191628172820002208F00018
:060078002108F10009005F
:10007E00FB14FB1F4928FF30F300F200F100F000E3
:08008E00FA0DF20CFF3008002E
:08009600FA1FF213003008000C
:10009E007B15FB1F59280130F300F201F101F0012D
:0800AE00FA0DF20CFF3008000E
:0E00B600F201F101F001F801F3010030080041
:1000C400A0017208031D77287108F2007008F1007E
:1000D400F001A0157208031D77287108F200F101E0
:1000E400A01120167208031985282008F302031DA5
:1000F400031C89280310F21B8D28F00DF10DF20D5D
:10010400F30B7D2889280130FC005B209028023005
:0E011400FC004F2090280430FC004B20080017
:100122007C18C728FC1898287C19E6289128A00179
:100132007208031DB8287108F2007008F1007808EF
:10014200F000F801A0157208031DB8287108F2002A
:100152007008F100F001A01120167208031DB828E2
:100162007108F200F101A01572080319DA282008BB
:10017200F302031D031CDE280310F21BC728F80D2F
:10018200F00DF10DF20DF30BBE28DE287B1B701C67
:10019200E228F81FE228F00A0319F10A0319F20A09
:1001A200031DE228F20CF10CF00CF30A0319E62805
:1001B200E2280130FC005B20E9280230FC004F20DD
:1001C200E9280430FC004B20E9280830FC003F20DD
:0401D2000000080021
:1001D600710DF80DF90D7408F8027508031C750FFA
:1001E600F902F00DF10D0F30FC00710DF80DF90D4F
:1001F6007408701C0429F8027508031C750FF902AF
:100206000929F80775080318750FF907F00DF10DA0
:10021600FC0BF828701815297408F80775080318D8
:08022600750FF9070000080044
:06022E00FB15FF30080083
:100234007B14FB1F2529F201FA1FFF30F200F100A5
:0A024400F000FA0DF20CFF30080084
:10024E00303022005002F000F1010030F13B080086
:10025E002000FB017308031D770803198529720816
:10026E007606FA007708F3077E30031C4229F30264
:10027E00031888294529F302031C8B297208F800FC
:10028E007108FC007008FD00F817F6170310F20154
:10029E00F101F0011830A0007D1C5F297408F007F1
:1002AE0075080318750FF10776080318760FF20715
:1002BE00F20CF10CF00CF80CFC0CFD0C0310A00B66
:1002CE005329F21B6F29F80DF00DF10DF20DF3030A
:1002DE007B1B701C8129F81F8129F00A0319F10A72
:1002EE000319F20A031D8129F20CF10CF00CF30A2A
:1002FE0003198829FA1FF21300308D2901305B2073
:10030E008D2902303F208D2904304F200000080037
:10031E00200072087606A000F801F9017308770232
:10032E00031CB1297708FD007308F7007D08F30060
:10033E007608FD007208F6007D08F2007508FD00D3
:10034E007108F5007D08F1007408FD007008F400D6
:10035E007D08F000770803192A2A7208FA00F217AE
:10036E00F61777087302F7000319E42908307702AD
:10037E00031CDA29F7007408F9007508F4007608F2
:10038E00F500F60108307702031CDA29F70074082D
:10039E00F9007508F400F50108307702031CDA291C
:1003AE007A08F2002A2A77080319E4290310F60CBA
:1003BE00F50CF40CF90CF70BDD29A01FF129F90946
:1003CE00F409F509F609F90A0319F40A0319F50AED
:1003DE000319F60A7908F80774080318740FF00762
:1003EE0075080318750FF10776080318760FF207D4
:1003FE00A01B0A2A031C1A2AF20CF10CF00CF80CA2
:10040E00F30F1A2A262A03181E2AF809F009F109F1
:10041E00F209F80A0319F00A0319F10A0319F20A8C
:10042E008030FA06222A0130FC0091202C2A02305C
:10043E00FC0091202C2A0430FC0062202C2A08306B
:0E044E00FC003F202C2A0030FC0000000800BB
:10045C0020007008F8007108F000F101F201F301BE
:10046C00FB01FC019630F300FA01F01F432AF80956
:10047C00F009F80A0319F00AFA177008F100780865
:0A048C00F000F801F2016220080000
:100496002000FA017308031D7A147708031DFA1465
:1004A6007A080319962A033A0319612A7A185E2AEA
:1004B600F61F942A922AF21F922A942A72088039E9
:1004C600FA00F21376088039F6137A0603196F2AB2
:1004D6007A080319922A942A770873020319762A4E
:1004E600031C8A2A8E2A7608720203197D2A031CA7
:1004F6008A2A8E2A750871020319842A031C8A2AFD
:100506008E2A740870020319962A03188E2AFA088E
:100516000319942A922AFA080319922A942A031490
:0E052600080003100800031403150800080065
:100534002000FB0173080319D62A7208FA00F21787
:100544008E30F302F31FD92AF309F30A0830730239
:10055400031CBC2AF300F10D7208F100F20108300B
:100564007302031CBC2AF300F10DF1017308031D8F
:100574000310C42A73080319C42A0310F20CF10CE3
:10058400F30BBF2A7B1B711CCE2A031CCE2AF10A53
:100594000319F20AF21BE52AFA1FE82AF209F10903
:1005A400F10A0319F20AE82AF201F101E82A7B149C
:1005B400FB1FEB2AF201FA1FEB2AFF30F200F100D5
:1005C400FA0DF20CEB2A0130FC00ED2A0030FC009D
:1005D400ED2AFF30FC00FC080319F12A1A217108E6
:0805E400F0007208F1000800AC
:1005EC007408003A031D032B7508003A031D032BF6
:1005FC00FF30F0007F30F1005B2B2000FD01F90192
:10060C00F801710870040319003471087506FA00BA
:10061C00FA1BFD09FB01F51F182BF409F509F40A67
:10062C000319F50AF11F1F2BF009F109F00A031940
:10063C00F10A71087504FA00FA1B342BEB207B18B5
:10064C00472BFD1F0034F009F109F00A0319F10AD8
:10065C00F809F909F80A0319F90A0034F51F432BB4
:10066C00F11B3F2B7108F9007008F800F101F00143
:10067C00272BF101F001F00A0034F109F009FB0A13
:10068C00242BF80A0319F90A74087802031D272B86
:10069C0075087902031D272BF901F801F00A0319DB
:0C06AC00F10AF11F272B0000FF340800AA
:1006B80023009E18612B00005C2B22003D082300BC
:0406C8009A0008008C
:1006CC007408003A031D7F2B7508003A031D7F2B1D
:1006DC007608003A031D7F2B7708003A031D7F2B09
:1006EC00FF30F000FF30F1007F30F200FF30F300FC
:1006FC00192C2000770803190D2C73080319102CE2
:10070C00720876068039FA00F217F617A001720803
:10071C00F8007108FC007008FD007408FD027508F3
:10072C00031C750FFC027608031C760FF802F80107
:10073C00FC01FD01031CA92B0310F20CF10CF00CB5
:10074C00F80C0130A0007708F302031CB32B7E30A9
:10075C002007F3070318132CB82B7E302007F30760
:10076C00031C162C1830FA07FD0DFC0DF80DF00DBE
:10077C00F10DF20DA00D7408F0027508031C750F35
:10078C00F1027608031C760FF202760DA004201CF1
:10079C00D12B7D14DC2B7408F00775080318750F2A
:1007AC00F10776080318760AF2077D10FA031F305A
:1007BC007A05031DBA2B7B1B7D1C032C0310F00D3B
:1007CC00F10DF20DA00D7408F0027508031C750FE5
:1007DC00F1027608031C760FF202760D2004013923
:1007EC00FD070318FC0A0319F80A031D032CF80C67
:1007FC00FC0CFD0CF30A0319132CFA1FF8137808E0
:10080C00F2007C08F1007D08F0000030182C01305B
:10081C001721182C02305B20182C04303F20182C88
:08082C0008304F200000080015
:0A08340020008030F6068F21080036
:10083E002200BF01C001C101C2010030C30000305F
:10084E00C4000030C5007F30C600CD30C700CC30AC
:10085E00C8004C30C9007B30CA00CB013D08840073
:10086E003E08850000082D3A031D462C0030C300BB
:10087E000030C4008030C5007F30C600CB0A4B0864
:10088E003D07840000303E3D85000008003A031904
:10089E00322D4B083D07840000303E3D8500303040
:1008AE000002031C9C2C4B083D07840000303E3D8B
:1008BE0085000008393C031C9C2C3F08F0004008C2
:1008CE00F1004108F2004208F3000030F40000305D
:1008DE00F5002030F6008230F7002F21700822003C
:1008EE00CC007108CD007208CE007308CF004B0803
:1008FE003D07840000303E3D85000008D0002721D2
:10090E002E2222004C08F4004D08F5004E08F60089
:10091E004F08F7008F2170082200BF007108C00039
:10092E007208C1007308C2002F2D4B083D078400CA
:10093E0000303E3D850000082E3A031D1D2DCB0ACA
:10094E004B083D07840000303E3D85000008003A0C
:10095E0003191C2D4B083D07840000303E3D8500D9
:10096E0030300002031C072D4B083D078400003079
:10097E003E3D85000008393C031C072D4B083D0702
:10098E00840000303E3D85000008D00027212E2235
:10099E0022004708F4004808F5004908F6004A0806
:1009AE00F7002F2122003F08F4004008F50041080F
:1009BE00F6004208F7008F2170082200BF00710870
:1009CE00C0007208C1007308C2004708F000480852
:1009DE00F1004908F2004A08F300CD30F400CC30A3
:1009EE00F5004C30F6007B30F7002F217008220006
:1009FE00C7007108C8007208C9007308CA00192D13
:100A0E003F08F0004008F1004108F2004208F300F0
:100A1E004308F4004408F5004508F6004608F700C0
:100A2E002F21432D2200CB0AA72C322D3F08F00098
:100A3E004008F1004108F2004208F3004308F400B8
:100A4E004408F5004508F6004608F7002F21432D0F
:100A5E002200CB0A462C3F08F0004008F100410866
:100A6E00F2004208F3004308F4004408F50045087C
:0A0A7E00F6004608F7002F210800DB
:100A88002200A00121006D0884006E08850000087E
:100A9800EF006F08003A0319612D6F082200BD00AE
:100AA8005C232200A00A200821006D078400003082
:0C0AB8006E3D85000008EF004D2D080089
:100AC40022002008A6002108A7002208A800230865
:100AD400A9002100EF012200AE01F401F501F601A5
:100AE400F7012608F0002708F1002808F200290879
:100AF400F3004B22013003180030F0007008031992
:100B0400982D00302200A6060030A7068030A806E3
:100B14000030A90621006F08220024078600003057
:100B2400253D87002D3081002100EF0A2200260890
:100B3400F0002708F1002808F2002908F3009A229F
:100B440070082100ED007108EE0080307106F2009B
:100B540080307202031DB02D64307002031CCE2D50
:100B64006F0822002407AF000030253DB000643038
:100B7400F4000030F50021006D08F0006E08F1006B
:100B8400F6223030F00722002F0886003008870054
:100B9400700881002100EF0A80306E06F00080307A
:100BA4007002031DD72D0A306D02031CFE2D6F0841
:100BB40022002407AF000030253DB0000A30F400C5
:100BC4000030F50021006D08F0006E08F100F622F7
:100BD4000A30F4000030F500F6227808F0007908B5
:100BE400F1003030F00722002F088600300887001B
:100BF400700881002100EF0A6F0822002407AF006B
:100C04000030253DB0000A30F4000030F50021002A
:100C14006D08F0006E08F100F6227808F0007908FB
:100C2400F1003030F00722002F08860030088700DA
:100C3400700881002100EF0A6F0822002407860053
:100C44000030253D87002E3081002100EF0A6D0819
:100C5400F0006E08F1002E227008F4007108F5000F
:100C64007208F6007308F70022002608F00027082F
:100C7400F1002808F2002908F3001A247008220061
:100C8400AA007108AB007208AC007308AD0008300C
:100C94002E0203189C2E2A08F0002B08F1002C08C1
:100CA400F2002D08F3000030F4000030F50020308D
:100CB400F6008230F7002F2170082200AA00710884
:100CC400AB007208AC007308AD009A2270082100D2
:100CD400ED007108EE006F08220024078600003042
:100CE400253D87003030F007700881002100EF0AAD
:100CF4006D08F0006E08F1002E227008F4007108EF
:100D0400F5007208F6007308F70022002A08F000C4
:100D14002B08F1002C08F2002D08F3001A247008A7
:100D24002200AA007108AB007208AC007308AD0081
:100D3400AE0A492E21006F082200240786000030E5
:080D4400253D87008101080034
:100D4C0021006D0884006E0885000008243A031DFC
:100D5C00E42E01306D07840000306E3D85000008E4
:100D6C00473A031DE42E02306D07840000306E3DBF
:100D7C0085000008503A031DE42E03306D078400F3
:100D8C0000306E3D85000008473A031DE42E043008
:100D9C006D07840000306E3D85000008473A031D46
:100DAC00E42E05306D07840000306E3D8500000890
:100DBC00413A031DE42E0130F000E52EF00108004D
:100DCC0012001E00F003031DE62EF103031DE62E98
:020DDC0008000D
:100DDE005C302100D2000330D3003D30D40001300E
:100DEE00D5001F30D6000730D7000030D8000030B5
:100DFE00D900FF30DA00FF30DB000030DC000030BD
:100E0E00DD00FF30CD00FF30CE000030CF000030CF
:100E1E00D00023009E1690309D0021008D140D11E0
:100E2E002000911E1E2F23001908F000172F080016
:100E3E0023001908F1009D1C262F1D121D16710886
:040E4E00F0000800A8
:100E52002000A301A401A501A601A701A801A901DF
:100E6200AA01AB01AC01AD01AE01AF01B001B1010C
:100E7200B201B301B401B501B601B701B801F03056
:100E8200210099008C018D0123008C018D0121002C
:100E92008D1491160B178B1723009F1540309B0062
:100EA20003309C001E15EF26200027080319CB2FC4
:100EB20019302100ED002030EE00A626700803193B
:100EC200C92F1930ED002030EE008831002080312A
:100ED20070080319C92F200028082200A000200052
:100EE20029082200A10020002A082200A2002000D6
:100EF2002B082200A300DE30A4000030A5006225EA
:100F0200DE302100ED000030EE0044250D302200DD
:100F1200BD005C23200030082200A0002000310820
:100F22002200A100200032082200A2002000330883
:100F32002200A300DE30A4000030A5006225DE30CE
:100F42002100ED000030EE0044250D302200BD00EE
:100F52005C23200034082200A00020003508220073
:100F6200A100200036082200A2002000370822003B
:100F7200A300DE30A4000030A5006225DE3021008F
:100F8200ED000030EE0044250D302200BD005C2350
:080F92002000A701552FCC2F10
:1010000007302200B800380821006D078400003046
:101010006E3D850000082C3A031911282200B80AF9
:1010200003282200B80A380821006D078400003028
:101030006E3D850000082C3A031D2028F00174291C
:10104000EF012200380821006D07840000306E3D5A
:10105000850000082C3A03194C2820308600013006
:1010600087006F0886070318870A220038082100C6
:101070006D07840000306E3D850000088100EF0A96
:1010800020308600013087006F0886070318870A22
:1010900081012200B80A212822002230BD0001303F
:1010A000BE0080311F24883170082200B40071080E
:1010B000B5007208B6007308B700A2012030BD0069
:1010C0000130BE0080311F24883170082200B90031
:1010D0007108BA007208BB007308BC000030F4004D
:1010E0000030F5007030F6008430F7003408F0006E
:1010F0003508F1003608F2003708F3008031662326
:10110000883122003908F4003A08F5003B08F6005F
:101110003C08F70080318F2188317008A8007108E1
:10112000A9007208AA007308AB002200B80A3808A8
:1011300021006D07840000306E3D85000008533AA1
:10114000031DAB2800302000A8060030A90680301F
:10115000AA060030AB0620002808F0002908F1009C
:101160002A08F2002B08F3003530F400FA30F500BD
:101170000E30F6007930F70080312F218831700869
:10118000AC007108AD007208AE007308AF00220019
:10119000B80AB80A2100EF012200380821006D07C3
:1011A000840000306E3D850000082C3A0319F728B2
:1011B00020308600013087006F0886070318870AF1
:1011C0002200380821006D07840000306E3D850044
:1011D00000088100EF0A20308600013087006F0888
:1011E00086070318870A81012200B80ACC2822004A
:1011F0002330BD000130BE0080311F2488317008CB
:101200002200B4007108B5007208B6007308B70078
:10121000A3012030BD000130BE0080311F24883181
:1012200070082200B9007108BA007208BB00730888
:10123000BC000030F4000030F5007030F60084305F
:10124000F7003408F0003508F1003608F2003708DE
:10125000F30080316623883122003908F4003A080F
:10126000F5003B08F6003C08F70080318F218831FB
:101270007008B0007108B1007208B2007308B300C2
:101280002200B80A380821006D07840000306E3D46
:1012900085000008573A031D562900302000B0068B
:1012A0000030B1068030B2060030B30620003008AE
:1012B000F0003108F1003208F2003308F300353055
:1012C000F400FA30F5000E30F6007930F700803186
:1012D0002F2188317008A3007108A4007208A500AE
:0A12E0007308A6000130F0000800BA
:020000040001F9
:04000E00843F131701
:00000001FF
